{
  "_format": "hh-sol-artifact-1",
  "contractName": "PoseidonT6",
  "sourceName": "contracts/Poseidon.sol",
  "abi": [
    {
      "inputs": [
        {
          "internalType": "uint256[5]",
          "name": "input",
          "type": "uint256[5]"
        }
      ],
      "name": "poseidon",
      "outputs": [
        {
          "internalType": "uint256",
          "name": "",
          "type": "uint256"
        }
      ],
      "stateMutability": "pure",
      "type": "function"
    }
  ],
  "bytecode": "0x61014761003a600b82828239805160001a60731461002d57634e487b7160e01b600052600060045260246000fd5b30600052607381538281f3fe73000000000000000000000000000000000000000030146080604052600436106100355760003560e01c80634937a2581461003a575b600080fd5b61004e610048366004610060565b50600090565b60405190815260200160405180910390f35b600060a08284031215610071578081fd5b82601f83011261007f578081fd5b60405160a0810181811067ffffffffffffffff821117156100a2576100a26100e2565b604052808360a081018610156100b6578384fd5b835b60058110156100d75781358352602092830192909101906001016100b8565b509195945050505050565b7f4e487b7100000000000000000000000000000000000000000000000000000000600052604160045260246000fdfea264697066735822122030a6f16b931c7328aa9ccc2ad7e3579aa6eaa19acff49be43c9c14bb97fb319064736f6c63430008040033",
  "linkReferences": {},
  "deployedLinkReferences": {}
}