{
  "_format": "hh-sol-artifact-1",
  "contractName": "SemaphoreClient",
  "sourceName": "contracts/SemaphoreClient.sol",
  "abi": [
    {
      "inputs": [
        {
          "internalType": "contract Semaphore",
          "name": "_semaphore",
          "type": "address"
        }
      ],
      "stateMutability": "nonpayable",
      "type": "constructor"
    },
    {
      "anonymous": false,
      "inputs": [
        {
          "indexed": true,
          "internalType": "uint256",
          "name": "signalIndex",
          "type": "uint256"
        }
      ],
      "name": "SignalBroadcastByClient",
      "type": "event"
    },
    {
      "inputs": [
        {
          "internalType": "bytes",
          "name": "_signal",
          "type": "bytes"
        },
        {
          "internalType": "uint256[8]",
          "name": "_proof",
          "type": "uint256[8]"
        },
        {
          "internalType": "uint256",
          "name": "_root",
          "type": "uint256"
        },
        {
          "internalType": "uint256",
          "name": "_nullifiersHash",
          "type": "uint256"
        },
        {
          "internalType": "uint232",
          "name": "_externalNullifier",
          "type": "uint232"
        }
      ],
      "name": "broadcastSignal",
      "outputs": [],
      "stateMutability": "nonpayable",
      "type": "function"
    },
    {
      "inputs": [
        {
          "internalType": "uint256",
          "name": "_index",
          "type": "uint256"
        }
      ],
      "name": "getExternalNullifierBySignalIndex",
      "outputs": [
        {
          "internalType": "uint256",
          "name": "",
          "type": "uint256"
        }
      ],
      "stateMutability": "view",
      "type": "function"
    },
    {
      "inputs": [
        {
          "internalType": "uint256",
          "name": "_index",
          "type": "uint256"
        }
      ],
      "name": "getSignalBySignalIndex",
      "outputs": [
        {
          "internalType": "bytes",
          "name": "",
          "type": "bytes"
        }
      ],
      "stateMutability": "view",
      "type": "function"
    },
    {
      "inputs": [],
      "name": "nextSignalIndex",
      "outputs": [
        {
          "internalType": "uint256",
          "name": "",
          "type": "uint256"
        }
      ],
      "stateMutability": "view",
      "type": "function"
    },
    {
      "inputs": [],
      "name": "semaphore",
      "outputs": [
        {
          "internalType": "contract Semaphore",
          "name": "",
          "type": "address"
        }
      ],
      "stateMutability": "view",
      "type": "function"
    },
    {
      "inputs": [
        {
          "internalType": "uint256",
          "name": "",
          "type": "uint256"
        }
      ],
      "name": "signalIndexToExternalNullifier",
      "outputs": [
        {
          "internalType": "uint256",
          "name": "",
          "type": "uint256"
        }
      ],
      "stateMutability": "view",
      "type": "function"
    },
    {
      "inputs": [
        {
          "internalType": "uint256",
          "name": "",
          "type": "uint256"
        }
      ],
      "name": "signalIndexToSignal",
      "outputs": [
        {
          "internalType": "bytes",
          "name": "",
          "type": "bytes"
        }
      ],
      "stateMutability": "view",
      "type": "function"
    }
  ],
  "bytecode": "0x6080604052600060025534801561001557600080fd5b5060405161092c38038061092c83398101604081905261003491610059565b600380546001600160a01b0319166001600160a01b0392909216919091179055610087565b60006020828403121561006a578081fd5b81516001600160a01b0381168114610080578182fd5b9392505050565b610896806100966000396000f3fe608060405234801561001057600080fd5b506004361061007d5760003560e01c80637b5d25341161005b5780637b5d2534146100ee5780638d2d593b14610133578063911ca41e1461013c578063f9cdb5cd1461014f57600080fd5b80630e57596f1461008257806327acf71b14610097578063740afb77146100c0575b600080fd5b61009561009036600461053c565b61016f565b005b6100aa6100a5366004610664565b6102be565b6040516100b791906106a8565b60405180910390f35b6100e06100ce366004610664565b60009081526001602052604090205490565b6040519081526020016100b7565b60035461010e9073ffffffffffffffffffffffffffffffffffffffff1681565b60405173ffffffffffffffffffffffffffffffffffffffff90911681526020016100b7565b6100e060025481565b6100aa61014a366004610664565b610358565b6100e061015d366004610664565b60016020526000908152604090205481565b600254600081815260208181526040909120875161018f928901906103fa565b506002805460009081526001602052604081207cffffffffffffffffffffffffffffffffffffffffffffffffffffffffff85169055815491906101d183610805565b90915550506003546040517f0e57596f00000000000000000000000000000000000000000000000000000000815273ffffffffffffffffffffffffffffffffffffffff90911690630e57596f9061023490899089908990899089906004016106c2565b600060405180830381600087803b15801561024e57600080fd5b505af1158015610262573d6000803e3d6000fd5b505050506040513d6000823e601f3d908101601f1916820160405261028a91908101906105f1565b5060405181907faa676fd106f1023de6c9eafff9af5bc8e299b3493d3aa816a3278a15d055657b90600090a2505050505050565b600060208190529081526040902080546102d7906107ca565b80601f0160208091040260200160405190810160405280929190818152602001828054610303906107ca565b80156103505780601f1061032557610100808354040283529160200191610350565b820191906000526020600020905b81548152906001019060200180831161033357829003601f168201915b505050505081565b6000818152602081905260409020805460609190610375906107ca565b80601f01602080910402602001604051908101604052809291908181526020018280546103a1906107ca565b80156103ee5780601f106103c3576101008083540402835291602001916103ee565b820191906000526020600020905b8154815290600101906020018083116103d157829003601f168201915b50505050509050919050565b828054610406906107ca565b90600052602060002090601f016020900481019282610428576000855561046e565b82601f1061044157805160ff191683800117855561046e565b8280016001018555821561046e579182015b8281111561046e578251825591602001919060010190610453565b5061047a92915061047e565b5090565b5b8082111561047a576000815560010161047f565b600082601f8301126104a3578081fd5b60405161010080820182811067ffffffffffffffff821117156104c8576104c861084a565b60405281848281018710156104db578485fd5b8492505b60088310156104ff578035825260019290920191602091820191016104df565b509195945050505050565b80357cffffffffffffffffffffffffffffffffffffffffffffffffffffffffff8116811461053757600080fd5b919050565b60008060008060006101808688031215610554578081fd5b853567ffffffffffffffff81111561056a578182fd5b8601601f8101881361057a578182fd5b803561058d61058882610772565b610741565b8181528960208385010111156105a1578384fd5b8160208401602083013783602083830101528097505050506105c68760208801610493565b9350610120860135925061014086013591506105e5610160870161050a565b90509295509295909350565b600060208284031215610602578081fd5b815167ffffffffffffffff811115610618578182fd5b8201601f81018413610628578182fd5b805161063661058882610772565b81815285602083850101111561064a578384fd5b61065b82602083016020860161079a565b95945050505050565b600060208284031215610675578081fd5b5035919050565b6000815180845261069481602086016020860161079a565b601f01601f19169290920160200192915050565b6020815260006106bb602083018461067c565b9392505050565b60006101808083526106d68184018961067c565b91505060208083018760005b60088110156106ff578151835291830191908301906001016106e2565b5050505084610120830152836101408301527cffffffffffffffffffffffffffffffffffffffffffffffffffffffffff83166101608301529695505050505050565b604051601f8201601f1916810167ffffffffffffffff8111828210171561076a5761076a61084a565b604052919050565b600067ffffffffffffffff82111561078c5761078c61084a565b50601f01601f191660200190565b60005b838110156107b557818101518382015260200161079d565b838111156107c4576000848401525b50505050565b600181811c908216806107de57607f821691505b602082108114156107ff57634e487b7160e01b600052602260045260246000fd5b50919050565b60007fffffffffffffffffffffffffffffffffffffffffffffffffffffffffffffffff82141561084357634e487b7160e01b81526011600452602481fd5b5060010190565b634e487b7160e01b600052604160045260246000fdfea264697066735822122066a5bf8ad750f4c82b291907a4154543df89912a43ca42fd57a59a1ad5c0075164736f6c63430008040033",
  "linkReferences": {},
  "deployedLinkReferences": {}
}