{
  "_format": "hh-sol-artifact-1",
  "contractName": "IncrementalQuinTree",
  "sourceName": "contracts/IncrementalMerkleTree.sol",
  "abi": [
    {
      "inputs": [
        {
          "internalType": "uint8",
          "name": "_treeLevels",
          "type": "uint8"
        },
        {
          "internalType": "uint256",
          "name": "_zeroValue",
          "type": "uint256"
        }
      ],
      "stateMutability": "nonpayable",
      "type": "constructor"
    },
    {
      "anonymous": false,
      "inputs": [
        {
          "indexed": true,
          "internalType": "uint256",
          "name": "leaf",
          "type": "uint256"
        },
        {
          "indexed": true,
          "internalType": "uint256",
          "name": "leafIndex",
          "type": "uint256"
        }
      ],
      "name": "LeafInsertion",
      "type": "event"
    },
    {
      "anonymous": false,
      "inputs": [
        {
          "indexed": true,
          "internalType": "address",
          "name": "previousOwner",
          "type": "address"
        },
        {
          "indexed": true,
          "internalType": "address",
          "name": "newOwner",
          "type": "address"
        }
      ],
      "name": "OwnershipTransferred",
      "type": "event"
    },
    {
      "inputs": [
        {
          "internalType": "uint256[]",
          "name": "array",
          "type": "uint256[]"
        }
      ],
      "name": "hash11",
      "outputs": [
        {
          "internalType": "uint256",
          "name": "",
          "type": "uint256"
        }
      ],
      "stateMutability": "pure",
      "type": "function"
    },
    {
      "inputs": [
        {
          "internalType": "uint256[5]",
          "name": "array",
          "type": "uint256[5]"
        }
      ],
      "name": "hash5",
      "outputs": [
        {
          "internalType": "uint256",
          "name": "",
          "type": "uint256"
        }
      ],
      "stateMutability": "pure",
      "type": "function"
    },
    {
      "inputs": [
        {
          "internalType": "uint256",
          "name": "_left",
          "type": "uint256"
        },
        {
          "internalType": "uint256",
          "name": "_right",
          "type": "uint256"
        }
      ],
      "name": "hashLeftRight",
      "outputs": [
        {
          "internalType": "uint256",
          "name": "",
          "type": "uint256"
        }
      ],
      "stateMutability": "pure",
      "type": "function"
    },
    {
      "inputs": [
        {
          "internalType": "uint256",
          "name": "_leaf",
          "type": "uint256"
        }
      ],
      "name": "insertLeaf",
      "outputs": [
        {
          "internalType": "uint256",
          "name": "",
          "type": "uint256"
        }
      ],
      "stateMutability": "nonpayable",
      "type": "function"
    },
    {
      "inputs": [],
      "name": "isOwner",
      "outputs": [
        {
          "internalType": "bool",
          "name": "",
          "type": "bool"
        }
      ],
      "stateMutability": "view",
      "type": "function"
    },
    {
      "inputs": [],
      "name": "owner",
      "outputs": [
        {
          "internalType": "address",
          "name": "",
          "type": "address"
        }
      ],
      "stateMutability": "view",
      "type": "function"
    },
    {
      "inputs": [],
      "name": "renounceOwnership",
      "outputs": [],
      "stateMutability": "nonpayable",
      "type": "function"
    },
    {
      "inputs": [],
      "name": "root",
      "outputs": [
        {
          "internalType": "uint256",
          "name": "",
          "type": "uint256"
        }
      ],
      "stateMutability": "view",
      "type": "function"
    },
    {
      "inputs": [
        {
          "internalType": "uint256",
          "name": "",
          "type": "uint256"
        }
      ],
      "name": "rootHistory",
      "outputs": [
        {
          "internalType": "bool",
          "name": "",
          "type": "bool"
        }
      ],
      "stateMutability": "view",
      "type": "function"
    },
    {
      "inputs": [
        {
          "internalType": "address",
          "name": "newOwner",
          "type": "address"
        }
      ],
      "name": "transferOwnership",
      "outputs": [],
      "stateMutability": "nonpayable",
      "type": "function"
    }
  ],
  "bytecode": "0x608060405260006001553480156200001657600080fd5b50604051620022303803806200223083398181016040528101906200003c919062000369565b336000806101000a81548173ffffffffffffffffffffffffffffffffffffffff021916908373ffffffffffffffffffffffffffffffffffffffff16021790555060008054906101000a900473ffffffffffffffffffffffffffffffffffffffff1673ffffffffffffffffffffffffffffffffffffffff16600073ffffffffffffffffffffffffffffffffffffffff167f8be0079c531659141344cd1fd0a4f28419497f9722a3daafe3b4186f6b6457e060405160405180910390a360008260ff16118015620001125750602060ff168260ff1611155b62000154576040517f08c379a00000000000000000000000000000000000000000000000000000000081526004016200014b906200047c565b60405180910390fd5b81600060146101000a81548160ff021916908360ff16021790555060008190506200017e620002ed565b60005b8460ff168160ff161015620002455760005b600560ff168160ff161015620002005783838260ff1660058110620001e1577f4e487b7100000000000000000000000000000000000000000000000000000000600052603260045260246000fd5b6020020181815250508080620001f790620004f3565b91505062000193565b5082600360008360ff168152602001908152602001600020819055506200022d826200025760201b60201c565b925080806200023c90620004f3565b91505062000181565b508160028190555050505050620005d4565b600073__$223301b175b06473d424a7afc957d4e96c$__634937a258836040518263ffffffff1660e01b81526004016200029291906200045f565b60206040518083038186803b158015620002ab57600080fd5b505af4158015620002c0573d6000803e3d6000fd5b505050506040513d601f19601f82011682018060405250810190620002e691906200033d565b9050919050565b6040518060a00160405280600590602082028036833780820191505090505090565b6000815190506200032081620005a0565b92915050565b6000815190506200033781620005ba565b92915050565b6000602082840312156200035057600080fd5b600062000360848285016200030f565b91505092915050565b600080604083850312156200037d57600080fd5b60006200038d8582860162000326565b9250506020620003a0858286016200030f565b9150509250929050565b6000620003b883836200044e565b60208301905092915050565b620003cf81620004a8565b620003db8184620004c0565b9250620003e8826200049e565b8060005b838110156200041f578151620004038782620003aa565b96506200041083620004b3565b925050600181019050620003ec565b505050505050565b600062000436603983620004cb565b9150620004438262000551565b604082019050919050565b6200045981620004dc565b82525050565b600060a082019050620004766000830184620003c4565b92915050565b60006020820190508181036000830152620004978162000427565b9050919050565b6000819050919050565b600060059050919050565b6000602082019050919050565b600081905092915050565b600082825260208201905092915050565b6000819050919050565b600060ff82169050919050565b60006200050082620004e6565b915060ff82141562000517576200051662000522565b5b600182019050919050565b7f4e487b7100000000000000000000000000000000000000000000000000000000600052601160045260246000fd5b7f496e6372656d656e74616c5175696e547265653a205f747265654c6576656c7360008201527f206d757374206265206265747765656e203020616e6420333300000000000000602082015250565b620005ab81620004dc565b8114620005b757600080fd5b50565b620005c581620004e6565b8114620005d157600080fd5b50565b611c4c80620005e46000396000f3fe608060405234801561001057600080fd5b506004361061009e5760003560e01c80639cfced97116100665780639cfced9714610149578063b720243414610179578063ebf0c717146101a9578063f1c621ee146101c7578063f2fde38b146101f75761009e565b80635bb93995146100a3578063715018a6146100d35780638a1a52d2146100dd5780638da5cb5b1461010d5780638f32d59b1461012b575b600080fd5b6100bd60048036038101906100b8919061132c565b610213565b6040516100ca91906115e2565b60405180910390f35b6100db610335565b005b6100f760048036038101906100f29190611299565b61043a565b60405161010491906115e2565b60405180910390f35b610115610a88565b60405161012291906114f6565b60405180910390f35b610133610ab1565b6040516101409190611547565b60405180910390f35b610163600480360381019061015e9190611270565b610b08565b60405161017091906115e2565b60405180910390f35b610193600480360381019061018e91906112da565b610b98565b6040516101a091906115e2565b60405180910390f35b6101b1610efe565b6040516101be91906115e2565b60405180910390f35b6101e160048036038101906101dc91906112da565b610f04565b6040516101ee9190611547565b60405180910390f35b610211600480360381019061020c9190611247565b610f24565b005b600061021d6110a4565b8381600060028110610258577f4e487b7100000000000000000000000000000000000000000000000000000000600052603260045260246000fd5b602002018181525050828160016002811061029c577f4e487b7100000000000000000000000000000000000000000000000000000000600052603260045260246000fd5b60200201818152505073__$86e0c54df1042e28bf2dd20ccf184dc428$__6329a5f2f6826040518263ffffffff1660e01b81526004016102dc9190611511565b60206040518083038186803b1580156102f457600080fd5b505af4158015610308573d6000803e3d6000fd5b505050506040513d601f19601f8201168201806040525081019061032c9190611303565b91505092915050565b61033d610ab1565b61037c576040517f08c379a0000000000000000000000000000000000000000000000000000000008152600401610373906115a2565b60405180910390fd5b600073ffffffffffffffffffffffffffffffffffffffff1660008054906101000a900473ffffffffffffffffffffffffffffffffffffffff1673ffffffffffffffffffffffffffffffffffffffff167f8be0079c531659141344cd1fd0a4f28419497f9722a3daafe3b4186f6b6457e060405160405180910390a360008060006101000a81548173ffffffffffffffffffffffffffffffffffffffff021916908373ffffffffffffffffffffffffffffffffffffffff160217905550565b600080600b67ffffffffffffffff81111561047e577f4e487b7100000000000000000000000000000000000000000000000000000000600052604160045260246000fd5b6040519080825280602002602001820160405280156104ac5781602001602082028036833780820191505090505b5090506104b76110c6565b6104bf6110c6565b60005b855181101561056457858181518110610504577f4e487b7100000000000000000000000000000000000000000000000000000000600052603260045260246000fd5b6020026020010151848281518110610545577f4e487b7100000000000000000000000000000000000000000000000000000000600052603260045260246000fd5b602002602001018181525050808061055c9061195d565b9150506104c2565b506000855190505b600b8110156105cf5760008482815181106105b0577f4e487b7100000000000000000000000000000000000000000000000000000000600052603260045260246000fd5b60200260200101818152505080806105c79061195d565b91505061056c565b5060005b600581101561070157838181518110610615577f4e487b7100000000000000000000000000000000000000000000000000000000600052603260045260246000fd5b6020026020010151838260058110610656577f4e487b7100000000000000000000000000000000000000000000000000000000600052603260045260246000fd5b6020020181815250508360058261066d91906116df565b815181106106a4577f4e487b7100000000000000000000000000000000000000000000000000000000600052603260045260246000fd5b60200260200101518282600581106106e5577f4e487b7100000000000000000000000000000000000000000000000000000000600052603260045260246000fd5b60200201818152505080806106f99061195d565b9150506105d3565b5061070a6110a4565b73__$223301b175b06473d424a7afc957d4e96c$__634937a258846040518263ffffffff1660e01b8152600401610741919061152c565b60206040518083038186803b15801561075957600080fd5b505af415801561076d573d6000803e3d6000fd5b505050506040513d601f19601f820116820180604052508101906107919190611303565b816000600281106107cb577f4e487b7100000000000000000000000000000000000000000000000000000000600052603260045260246000fd5b60200201818152505073__$223301b175b06473d424a7afc957d4e96c$__634937a258836040518263ffffffff1660e01b815260040161080b919061152c565b60206040518083038186803b15801561082357600080fd5b505af4158015610837573d6000803e3d6000fd5b505050506040513d601f19601f8201168201806040525081019061085b9190611303565b81600160028110610895577f4e487b7100000000000000000000000000000000000000000000000000000000600052603260045260246000fd5b6020020181815250506108a66110a4565b73__$86e0c54df1042e28bf2dd20ccf184dc428$__6329a5f2f6836040518263ffffffff1660e01b81526004016108dd9190611511565b60206040518083038186803b1580156108f557600080fd5b505af4158015610909573d6000803e3d6000fd5b505050506040513d601f19601f8201168201806040525081019061092d9190611303565b81600060028110610967577f4e487b7100000000000000000000000000000000000000000000000000000000600052603260045260246000fd5b60200201818152505084600a815181106109aa577f4e487b7100000000000000000000000000000000000000000000000000000000600052603260045260246000fd5b6020026020010151816001600281106109ec577f4e487b7100000000000000000000000000000000000000000000000000000000600052603260045260246000fd5b60200201818152505073__$86e0c54df1042e28bf2dd20ccf184dc428$__6329a5f2f6826040518263ffffffff1660e01b8152600401610a2c9190611511565b60206040518083038186803b158015610a4457600080fd5b505af4158015610a58573d6000803e3d6000fd5b505050506040513d601f19601f82011682018060405250810190610a7c9190611303565b95505050505050919050565b60008060009054906101000a900473ffffffffffffffffffffffffffffffffffffffff16905090565b60008060009054906101000a900473ffffffffffffffffffffffffffffffffffffffff1673ffffffffffffffffffffffffffffffffffffffff163373ffffffffffffffffffffffffffffffffffffffff1614905090565b600073__$223301b175b06473d424a7afc957d4e96c$__634937a258836040518263ffffffff1660e01b8152600401610b41919061152c565b60206040518083038186803b158015610b5957600080fd5b505af4158015610b6d573d6000803e3d6000fd5b505050506040513d601f19601f82011682018060405250810190610b919190611303565b9050919050565b6000610ba2610ab1565b610be1576040517f08c379a0000000000000000000000000000000000000000000000000000000008152600401610bd8906115a2565b60405180910390fd5b7f30644e72e131a029b85045b68181585d2833e84879b9709143e1f593f00000018210610c43576040517f08c379a0000000000000000000000000000000000000000000000000000000008152600401610c3a90611582565b60405180910390fd5b600060149054906101000a900460ff1660ff16600560ff16610c6591906117b9565b60015410610ca8576040517f08c379a0000000000000000000000000000000000000000000000000000000008152600401610c9f906115c2565b60405180910390fd5b600060015490506000839050610cbc6110c6565b6000600560ff1684610cce91906119d0565b905060005b600060149054906101000a900460ff1660ff168160ff161015610e6d576000821415610d69576000600190505b600560ff168160ff161015610d6757600360008360ff16815260200190815260200160002054600460008460ff16815260200190815260200160002060008360ff168152602001908152602001600020819055508080610d5f906119a6565b915050610d00565b505b83600460008360ff16815260200190815260200160002060008481526020019081526020016000208190555060005b600560ff168160ff161015610e2a57600460008360ff16815260200190815260200160002060008260ff16815260200190815260200160002054848260ff1660058110610e0e577f4e487b7100000000000000000000000000000000000000000000000000000000600052603260045260246000fd5b6020020181815250508080610e22906119a6565b915050610d98565b50610e3483610b08565b9350600560ff1685610e469190611735565b9450600560ff1685610e5891906119d0565b91508080610e65906119a6565b915050610cd3565b5082600281905550600160056000600254815260200190815260200160002060006101000a81548160ff021916908315150217905550600060015490506001806000828254610ebc91906116df565b9250508190555080877fe6f49fa84abd31919f446b22a52bb3ceae774b4b87f062f022fec45c46f4f45860405160405180910390a38495505050505050919050565b60025481565b60056020528060005260406000206000915054906101000a900460ff1681565b610f2c610ab1565b610f6b576040517f08c379a0000000000000000000000000000000000000000000000000000000008152600401610f62906115a2565b60405180910390fd5b610f7481610f77565b50565b600073ffffffffffffffffffffffffffffffffffffffff168173ffffffffffffffffffffffffffffffffffffffff161415610fe7576040517f08c379a0000000000000000000000000000000000000000000000000000000008152600401610fde90611562565b60405180910390fd5b8073ffffffffffffffffffffffffffffffffffffffff1660008054906101000a900473ffffffffffffffffffffffffffffffffffffffff1673ffffffffffffffffffffffffffffffffffffffff167f8be0079c531659141344cd1fd0a4f28419497f9722a3daafe3b4186f6b6457e060405160405180910390a3806000806101000a81548173ffffffffffffffffffffffffffffffffffffffff021916908373ffffffffffffffffffffffffffffffffffffffff16021790555050565b6040518060400160405280600290602082028036833780820191505090505090565b6040518060a00160405280600590602082028036833780820191505090505090565b60006110fb6110f684611622565b6115fd565b9050808285602086028201111561111157600080fd5b60005b858110156111415781611127888261121d565b845260208401935060208301925050600181019050611114565b5050509392505050565b600061115e61115984611648565b6115fd565b9050808382526020820190508285602086028201111561117d57600080fd5b60005b858110156111ad5781611193888261121d565b845260208401935060208301925050600181019050611180565b5050509392505050565b6000813590506111c681611be8565b92915050565b600082601f8301126111dd57600080fd5b60056111ea8482856110e8565b91505092915050565b600082601f83011261120457600080fd5b813561121484826020860161114b565b91505092915050565b60008135905061122c81611bff565b92915050565b60008151905061124181611bff565b92915050565b60006020828403121561125957600080fd5b6000611267848285016111b7565b91505092915050565b600060a0828403121561128257600080fd5b6000611290848285016111cc565b91505092915050565b6000602082840312156112ab57600080fd5b600082013567ffffffffffffffff8111156112c557600080fd5b6112d1848285016111f3565b91505092915050565b6000602082840312156112ec57600080fd5b60006112fa8482850161121d565b91505092915050565b60006020828403121561131557600080fd5b600061132384828501611232565b91505092915050565b6000806040838503121561133f57600080fd5b600061134d8582860161121d565b925050602061135e8582860161121d565b9150509250929050565b600061137483836114e7565b60208301905092915050565b611389816118d7565b82525050565b61139881611688565b6113a281846116b8565b92506113ad82611674565b8060005b838110156113de5781516113c58782611368565b96506113d08361169e565b9250506001810190506113b1565b505050505050565b6113ef81611693565b6113f981846116c3565b92506114048261167e565b8060005b8381101561143557815161141c8782611368565b9650611427836116ab565b925050600181019050611408565b505050505050565b611446816118e9565b82525050565b60006114596026836116ce565b915061146482611aac565b604082019050919050565b600061147c6045836116ce565b915061148782611afb565b606082019050919050565b600061149f6020836116ce565b91506114aa82611b70565b602082019050919050565b60006114c26021836116ce565b91506114cd82611b99565b604082019050919050565b6114e181611915565b82525050565b6114f081611915565b82525050565b600060208201905061150b6000830184611380565b92915050565b6000604082019050611526600083018461138f565b92915050565b600060a08201905061154160008301846113e6565b92915050565b600060208201905061155c600083018461143d565b92915050565b6000602082019050818103600083015261157b8161144c565b9050919050565b6000602082019050818103600083015261159b8161146f565b9050919050565b600060208201905081810360008301526115bb81611492565b9050919050565b600060208201905081810360008301526115db816114b5565b9050919050565b60006020820190506115f760008301846114d8565b92915050565b6000611607611618565b9050611613828261192c565b919050565b6000604051905090565b600067ffffffffffffffff82111561163d5761163c611a5f565b5b602082029050919050565b600067ffffffffffffffff82111561166357611662611a5f565b5b602082029050602081019050919050565b6000819050919050565b6000819050919050565b600060029050919050565b600060059050919050565b6000602082019050919050565b6000602082019050919050565b600081905092915050565b600081905092915050565b600082825260208201905092915050565b60006116ea82611915565b91506116f583611915565b9250827fffffffffffffffffffffffffffffffffffffffffffffffffffffffffffffffff0382111561172a57611729611a01565b5b828201905092915050565b600061174082611915565b915061174b83611915565b92508261175b5761175a611a30565b5b828204905092915050565b6000808291508390505b60018511156117b05780860481111561178c5761178b611a01565b5b600185161561179b5780820291505b80810290506117a985611a9f565b9450611770565b94509492505050565b60006117c482611915565b91506117cf83611915565b92506117fc7fffffffffffffffffffffffffffffffffffffffffffffffffffffffffffffffff8484611804565b905092915050565b60008261181457600190506118d0565b8161182257600090506118d0565b8160018114611838576002811461184257611871565b60019150506118d0565b60ff84111561185457611853611a01565b5b8360020a91508482111561186b5761186a611a01565b5b506118d0565b5060208310610133831016604e8410600b84101617156118a65782820a9050838111156118a1576118a0611a01565b5b6118d0565b6118b38484846001611766565b925090508184048111156118ca576118c9611a01565b5b81810290505b9392505050565b60006118e2826118f5565b9050919050565b60008115159050919050565b600073ffffffffffffffffffffffffffffffffffffffff82169050919050565b6000819050919050565b600060ff82169050919050565b61193582611a8e565b810181811067ffffffffffffffff8211171561195457611953611a5f565b5b80604052505050565b600061196882611915565b91507fffffffffffffffffffffffffffffffffffffffffffffffffffffffffffffffff82141561199b5761199a611a01565b5b600182019050919050565b60006119b18261191f565b915060ff8214156119c5576119c4611a01565b5b600182019050919050565b60006119db82611915565b91506119e683611915565b9250826119f6576119f5611a30565b5b828206905092915050565b7f4e487b7100000000000000000000000000000000000000000000000000000000600052601160045260246000fd5b7f4e487b7100000000000000000000000000000000000000000000000000000000600052601260045260246000fd5b7f4e487b7100000000000000000000000000000000000000000000000000000000600052604160045260246000fd5b6000601f19601f8301169050919050565b60008160011c9050919050565b7f4f776e61626c653a206e6577206f776e657220697320746865207a65726f206160008201527f6464726573730000000000000000000000000000000000000000000000000000602082015250565b7f496e6372656d656e74616c5175696e547265653a20696e736572744c6561662060008201527f617267756d656e74206d757374206265203c20534e41524b5f5343414c41525f60208201527f4649454c44000000000000000000000000000000000000000000000000000000604082015250565b7f4f776e61626c653a2063616c6c6572206973206e6f7420746865206f776e6572600082015250565b7f496e6372656d656e74616c5175696e547265653a20747265652069732066756c60008201527f6c00000000000000000000000000000000000000000000000000000000000000602082015250565b611bf1816118d7565b8114611bfc57600080fd5b50565b611c0881611915565b8114611c1357600080fd5b5056fea2646970667358221220108ab811ee97ba84b8d2065c7e191992ca083a20e9ce8cadcb5661dc78a18b7064736f6c63430008040033",
  "linkReferences": {
    "contracts/Poseidon.sol": {
      "PoseidonT3": [
        {
          "length": 20,
          "start": 2187
        },
        {
          "length": 20,
          "start": 3724
        },
        {
          "length": 20,
          "start": 4059
        }
      ],
      "PoseidonT6": [
        {
          "length": 20,
          "start": 603
        },
        {
          "length": 20,
          "start": 3312
        },
        {
          "length": 20,
          "start": 3514
        },
        {
          "length": 20,
          "start": 4336
        }
      ]
    }
  },
  "deployedLinkReferences": {
    "contracts/Poseidon.sol": {
      "PoseidonT3": [
        {
          "length": 20,
          "start": 679
        },
        {
          "length": 20,
          "start": 2216
        },
        {
          "length": 20,
          "start": 2551
        }
      ],
      "PoseidonT6": [
        {
          "length": 20,
          "start": 1804
        },
        {
          "length": 20,
          "start": 2006
        },
        {
          "length": 20,
          "start": 2828
        }
      ]
    }
  }
}