{
  "_format": "hh-sol-artifact-1",
  "contractName": "Semaphore",
  "sourceName": "contracts/Semaphore.sol",
  "abi": [
    {
      "inputs": [
        {
          "internalType": "uint8",
          "name": "_treeLevels",
          "type": "uint8"
        },
        {
          "internalType": "uint232",
          "name": "_firstExternalNullifier",
          "type": "uint232"
        }
      ],
      "stateMutability": "nonpayable",
      "type": "constructor"
    },
    {
      "anonymous": false,
      "inputs": [
        {
          "indexed": true,
          "internalType": "uint232",
          "name": "externalNullifier",
          "type": "uint232"
        }
      ],
      "name": "ExternalNullifierAdd",
      "type": "event"
    },
    {
      "anonymous": false,
      "inputs": [
        {
          "indexed": true,
          "internalType": "uint232",
          "name": "externalNullifier",
          "type": "uint232"
        },
        {
          "indexed": true,
          "internalType": "bool",
          "name": "active",
          "type": "bool"
        }
      ],
      "name": "ExternalNullifierChangeStatus",
      "type": "event"
    },
    {
      "anonymous": false,
      "inputs": [
        {
          "indexed": true,
          "internalType": "uint256",
          "name": "leaf",
          "type": "uint256"
        },
        {
          "indexed": true,
          "internalType": "uint256",
          "name": "leafIndex",
          "type": "uint256"
        }
      ],
      "name": "LeafInsertion",
      "type": "event"
    },
    {
      "anonymous": false,
      "inputs": [
        {
          "indexed": true,
          "internalType": "address",
          "name": "previousOwner",
          "type": "address"
        },
        {
          "indexed": true,
          "internalType": "address",
          "name": "newOwner",
          "type": "address"
        }
      ],
      "name": "OwnershipTransferred",
      "type": "event"
    },
    {
      "anonymous": false,
      "inputs": [
        {
          "indexed": true,
          "internalType": "bool",
          "name": "newPermission",
          "type": "bool"
        }
      ],
      "name": "PermissionSet",
      "type": "event"
    },
    {
      "anonymous": false,
      "inputs": [
        {
          "indexed": false,
          "internalType": "address",
          "name": "voter",
          "type": "address"
        }
      ],
      "name": "Voter",
      "type": "event"
    },
    {
      "inputs": [],
      "name": "NOTHING_UP_MY_SLEEVE_ZERO",
      "outputs": [
        {
          "internalType": "uint256",
          "name": "",
          "type": "uint256"
        }
      ],
      "stateMutability": "view",
      "type": "function"
    },
    {
      "inputs": [
        {
          "internalType": "uint232",
          "name": "_externalNullifier",
          "type": "uint232"
        }
      ],
      "name": "addExternalNullifier",
      "outputs": [],
      "stateMutability": "nonpayable",
      "type": "function"
    },
    {
      "inputs": [
        {
          "internalType": "bytes",
          "name": "_signal",
          "type": "bytes"
        },
        {
          "internalType": "uint256[8]",
          "name": "_proof",
          "type": "uint256[8]"
        },
        {
          "internalType": "uint256",
          "name": "_root",
          "type": "uint256"
        },
        {
          "internalType": "uint256",
          "name": "_nullifiersHash",
          "type": "uint256"
        },
        {
          "internalType": "uint232",
          "name": "_externalNullifier",
          "type": "uint232"
        }
      ],
      "name": "broadcastSignal",
      "outputs": [
        {
          "internalType": "string",
          "name": "",
          "type": "string"
        }
      ],
      "stateMutability": "nonpayable",
      "type": "function"
    },
    {
      "inputs": [
        {
          "internalType": "uint256",
          "name": "proposalId",
          "type": "uint256"
        },
        {
          "internalType": "uint8",
          "name": "support",
          "type": "uint8"
        },
        {
          "internalType": "string",
          "name": "reason",
          "type": "string"
        }
      ],
      "name": "castVote",
      "outputs": [],
      "stateMutability": "nonpayable",
      "type": "function"
    },
    {
      "inputs": [
        {
          "internalType": "uint232",
          "name": "_externalNullifier",
          "type": "uint232"
        }
      ],
      "name": "deactivateExternalNullifier",
      "outputs": [],
      "stateMutability": "nonpayable",
      "type": "function"
    },
    {
      "inputs": [
        {
          "internalType": "uint232",
          "name": "",
          "type": "uint232"
        }
      ],
      "name": "externalNullifierLinkedList",
      "outputs": [
        {
          "internalType": "uint232",
          "name": "next",
          "type": "uint232"
        },
        {
          "internalType": "bool",
          "name": "exists",
          "type": "bool"
        },
        {
          "internalType": "bool",
          "name": "isActive",
          "type": "bool"
        }
      ],
      "stateMutability": "view",
      "type": "function"
    },
    {
      "inputs": [],
      "name": "firstExternalNullifier",
      "outputs": [
        {
          "internalType": "uint232",
          "name": "",
          "type": "uint232"
        }
      ],
      "stateMutability": "view",
      "type": "function"
    },
    {
      "inputs": [
        {
          "internalType": "uint232",
          "name": "_externalNullifier",
          "type": "uint232"
        }
      ],
      "name": "getNextExternalNullifier",
      "outputs": [
        {
          "internalType": "uint232",
          "name": "",
          "type": "uint232"
        }
      ],
      "stateMutability": "view",
      "type": "function"
    },
    {
      "inputs": [],
      "name": "getNumIdentityCommitments",
      "outputs": [
        {
          "internalType": "uint256",
          "name": "",
          "type": "uint256"
        }
      ],
      "stateMutability": "view",
      "type": "function"
    },
    {
      "inputs": [
        {
          "internalType": "uint256[]",
          "name": "array",
          "type": "uint256[]"
        }
      ],
      "name": "hash11",
      "outputs": [
        {
          "internalType": "uint256",
          "name": "",
          "type": "uint256"
        }
      ],
      "stateMutability": "pure",
      "type": "function"
    },
    {
      "inputs": [
        {
          "internalType": "uint256[5]",
          "name": "array",
          "type": "uint256[5]"
        }
      ],
      "name": "hash5",
      "outputs": [
        {
          "internalType": "uint256",
          "name": "",
          "type": "uint256"
        }
      ],
      "stateMutability": "pure",
      "type": "function"
    },
    {
      "inputs": [
        {
          "internalType": "uint256",
          "name": "_left",
          "type": "uint256"
        },
        {
          "internalType": "uint256",
          "name": "_right",
          "type": "uint256"
        }
      ],
      "name": "hashLeftRight",
      "outputs": [
        {
          "internalType": "uint256",
          "name": "",
          "type": "uint256"
        }
      ],
      "stateMutability": "pure",
      "type": "function"
    },
    {
      "inputs": [
        {
          "internalType": "uint256",
          "name": "_identityCommitment",
          "type": "uint256"
        }
      ],
      "name": "insertIdentity",
      "outputs": [
        {
          "internalType": "uint256",
          "name": "",
          "type": "uint256"
        }
      ],
      "stateMutability": "nonpayable",
      "type": "function"
    },
    {
      "inputs": [
        {
          "internalType": "uint256",
          "name": "_leaf",
          "type": "uint256"
        }
      ],
      "name": "insertLeaf",
      "outputs": [
        {
          "internalType": "uint256",
          "name": "",
          "type": "uint256"
        }
      ],
      "stateMutability": "nonpayable",
      "type": "function"
    },
    {
      "inputs": [],
      "name": "isBroadcastPermissioned",
      "outputs": [
        {
          "internalType": "bool",
          "name": "",
          "type": "bool"
        }
      ],
      "stateMutability": "view",
      "type": "function"
    },
    {
      "inputs": [
        {
          "internalType": "uint232",
          "name": "_externalNullifier",
          "type": "uint232"
        }
      ],
      "name": "isExternalNullifierActive",
      "outputs": [
        {
          "internalType": "bool",
          "name": "",
          "type": "bool"
        }
      ],
      "stateMutability": "view",
      "type": "function"
    },
    {
      "inputs": [],
      "name": "isOwner",
      "outputs": [
        {
          "internalType": "bool",
          "name": "",
          "type": "bool"
        }
      ],
      "stateMutability": "view",
      "type": "function"
    },
    {
      "inputs": [],
      "name": "lastExternalNullifier",
      "outputs": [
        {
          "internalType": "uint232",
          "name": "",
          "type": "uint232"
        }
      ],
      "stateMutability": "view",
      "type": "function"
    },
    {
      "inputs": [
        {
          "internalType": "uint256",
          "name": "",
          "type": "uint256"
        }
      ],
      "name": "nullifierHashHistory",
      "outputs": [
        {
          "internalType": "bool",
          "name": "",
          "type": "bool"
        }
      ],
      "stateMutability": "view",
      "type": "function"
    },
    {
      "inputs": [],
      "name": "numExternalNullifiers",
      "outputs": [
        {
          "internalType": "uint256",
          "name": "",
          "type": "uint256"
        }
      ],
      "stateMutability": "view",
      "type": "function"
    },
    {
      "inputs": [],
      "name": "owner",
      "outputs": [
        {
          "internalType": "address",
          "name": "",
          "type": "address"
        }
      ],
      "stateMutability": "view",
      "type": "function"
    },
    {
      "inputs": [
        {
          "internalType": "uint256[2]",
          "name": "_a",
          "type": "uint256[2]"
        },
        {
          "internalType": "uint256[2][2]",
          "name": "_b",
          "type": "uint256[2][2]"
        },
        {
          "internalType": "uint256[2]",
          "name": "_c",
          "type": "uint256[2]"
        }
      ],
      "name": "packProof",
      "outputs": [
        {
          "internalType": "uint256[8]",
          "name": "",
          "type": "uint256[8]"
        }
      ],
      "stateMutability": "pure",
      "type": "function"
    },
    {
      "inputs": [
        {
          "internalType": "bytes",
          "name": "_signal",
          "type": "bytes"
        },
        {
          "internalType": "uint256[8]",
          "name": "_proof",
          "type": "uint256[8]"
        },
        {
          "internalType": "uint256",
          "name": "_root",
          "type": "uint256"
        },
        {
          "internalType": "uint256",
          "name": "_nullifiersHash",
          "type": "uint256"
        },
        {
          "internalType": "uint256",
          "name": "_signalHash",
          "type": "uint256"
        },
        {
          "internalType": "uint232",
          "name": "_externalNullifier",
          "type": "uint232"
        }
      ],
      "name": "preBroadcastCheck",
      "outputs": [
        {
          "internalType": "bool",
          "name": "",
          "type": "bool"
        }
      ],
      "stateMutability": "view",
      "type": "function"
    },
    {
      "inputs": [
        {
          "internalType": "uint232",
          "name": "_externalNullifier",
          "type": "uint232"
        }
      ],
      "name": "reactivateExternalNullifier",
      "outputs": [],
      "stateMutability": "nonpayable",
      "type": "function"
    },
    {
      "inputs": [],
      "name": "renounceOwnership",
      "outputs": [],
      "stateMutability": "nonpayable",
      "type": "function"
    },
    {
      "inputs": [],
      "name": "root",
      "outputs": [
        {
          "internalType": "uint256",
          "name": "",
          "type": "uint256"
        }
      ],
      "stateMutability": "view",
      "type": "function"
    },
    {
      "inputs": [
        {
          "internalType": "uint256",
          "name": "",
          "type": "uint256"
        }
      ],
      "name": "rootHistory",
      "outputs": [
        {
          "internalType": "bool",
          "name": "",
          "type": "bool"
        }
      ],
      "stateMutability": "view",
      "type": "function"
    },
    {
      "inputs": [],
      "name": "sender",
      "outputs": [
        {
          "internalType": "address",
          "name": "",
          "type": "address"
        }
      ],
      "stateMutability": "nonpayable",
      "type": "function"
    },
    {
      "inputs": [
        {
          "internalType": "address",
          "name": "_logic",
          "type": "address"
        }
      ],
      "name": "setLogicAddyasProxy",
      "outputs": [],
      "stateMutability": "payable",
      "type": "function"
    },
    {
      "inputs": [
        {
          "internalType": "bool",
          "name": "_newPermission",
          "type": "bool"
        }
      ],
      "name": "setPermissioning",
      "outputs": [],
      "stateMutability": "nonpayable",
      "type": "function"
    },
    {
      "inputs": [
        {
          "internalType": "address",
          "name": "newOwner",
          "type": "address"
        }
      ],
      "name": "transferOwnership",
      "outputs": [],
      "stateMutability": "nonpayable",
      "type": "function"
    },
    {
      "inputs": [
        {
          "internalType": "uint256[8]",
          "name": "_proof",
          "type": "uint256[8]"
        }
      ],
      "name": "unpackProof",
      "outputs": [
        {
          "internalType": "uint256[2]",
          "name": "",
          "type": "uint256[2]"
        },
        {
          "internalType": "uint256[2][2]",
          "name": "",
          "type": "uint256[2][2]"
        },
        {
          "internalType": "uint256[2]",
          "name": "",
          "type": "uint256[2]"
        }
      ],
      "stateMutability": "pure",
      "type": "function"
    },
    {
      "inputs": [
        {
          "internalType": "uint256[2]",
          "name": "a",
          "type": "uint256[2]"
        },
        {
          "internalType": "uint256[2][2]",
          "name": "b",
          "type": "uint256[2][2]"
        },
        {
          "internalType": "uint256[2]",
          "name": "c",
          "type": "uint256[2]"
        },
        {
          "internalType": "uint256[4]",
          "name": "input",
          "type": "uint256[4]"
        }
      ],
      "name": "verifyProof",
      "outputs": [
        {
          "internalType": "bool",
          "name": "r",
          "type": "bool"
        }
      ],
      "stateMutability": "view",
      "type": "function"
    }
  ],
  "bytecode": "0x60006001819055600855600980546001600160e81b0319168155600a80546001600160f01b031916600160e81b1790556853656d6170686f726560b81b60a05260805260a9604052620000937f30644e72e131a029b85045b68181585d2833e84879b9709143e1f593f00000017f7d10c03d1f7884c85edee6353bd2b2ffbae9221236edde3778eac58089912bc062000583565b600c55348015620000a357600080fd5b50604051620044df380380620044df833981016040819052620000c691620004c3565b600c54600080546001600160a01b031916339081178255604051859392907f8be0079c531659141344cd1fd0a4f28419497f9722a3daafe3b4186f6b6457e0908290a360008260ff16118015620001215750602060ff831611155b620001995760405162461bcd60e51b815260206004820152603960248201527f496e6372656d656e74616c5175696e547265653a205f747265654c6576656c7360448201527f206d757374206265206265747765656e203020616e642033330000000000000060648201526084015b60405180910390fd5b6000805460ff60a01b1916600160a01b60ff85160217905580620001bc6200048c565b60005b8460ff168160ff161015620002555760005b600560ff821610156200021d5783838260ff16600581106200020357634e487b7160e01b600052603260045260246000fd5b602002015280620002148162000560565b915050620001d1565b5060ff811660009081526003602052604090208390556200023e8262000272565b9250806200024c8162000560565b915050620001bf565b5050600255506200026a905081600162000308565b5050620005ba565b604051630926f44b60e31b815260009073__$223301b175b06473d424a7afc957d4e96c$__90634937a25890620002ae9085906004016200050f565b60206040518083038186803b158015620002c757600080fd5b505af4158015620002dc573d6000803e3d6000fd5b505050506040513d601f19601f82011682018060405250810190620003029190620004aa565b92915050565b80156200033057600980546001600160e81b0319166001600160e81b038416179055620003e6565b6001600160e81b038216600090815260076020526040902054600160e81b900460ff1615620003b45760405162461bcd60e51b815260206004820152602960248201527f53656d6170686f72653a2065787465726e616c206e756c6c696669657220616c6044820152681c9958591e481cd95d60ba1b606482015260840162000190565b600a546001600160e81b03908116600090815260076020526040902080546001600160e81b0319169184169190911790555b6001600160e81b038216600081815260076020526040812080547fff000000000000000000000000000000000000000000000000000000000000001661010160e81b179055600a80546001600160e81b03191690921790915560088054916200044f8362000542565b90915550506040516001600160e81b038316907fd1ca56647596090d70fa8d49bcc376b97248314e3f204c491333b3440405f58990600090a25050565b6040518060a001604052806005906020820280368337509192915050565b600060208284031215620004bc578081fd5b5051919050565b60008060408385031215620004d6578081fd5b825160ff81168114620004e7578182fd5b60208401519092506001600160e81b038116811462000504578182fd5b809150509250929050565b60a08101818360005b60058110156200053957815183526020928301929091019060010162000518565b50505092915050565b6000600019821415620005595762000559620005a4565b5060010190565b600060ff821660ff8114156200057a576200057a620005a4565b60010192915050565b6000826200059f57634e487b7160e01b81526012600452602481fd5b500690565b634e487b7160e01b600052601160045260246000fd5b613f1580620005ca6000396000f3fe6080604052600436106101fe5760003560e01c80638a1a52d21161011d578063c4cd5596116100b0578063ebf0c7171161007f578063f2fde38b11610064578063f2fde38b14610683578063f5ab0dd6146106a3578063fcf16576146106d257600080fd5b8063ebf0c7171461063d578063f1c621ee1461065357600080fd5b8063c4cd55961461058d578063c8cf02da146105bd578063ce85bbdb146105dd578063eac4287e146105fd57600080fd5b80639cfced97116100ec5780639cfced9714610518578063b720243414610538578063ba10b81d14610558578063c3a3407f1461056d57600080fd5b80638a1a52d2146104a45780638da5cb5b146104c45780638f32d59b146104e25780638f6efd001461050257600080fd5b80635e05ea17116101955780636ebf6265116101645780636ebf6265146103e6578063715018a6146103fc5780637a5519f914610411578063819bd8a51461048457600080fd5b80635e05ea17146103525780635fe8c13b1461037f57806367e404ce1461039f5780636d80efca146103c657600080fd5b8063539f38b2116101d1578063539f38b2146102ac5780635bb93995146102cc5780635d3ce725146102fa5780635d86faba1461031a57600080fd5b80630e57596f1461020357806323baaa8314610239578063283ebaf41461025b578063470b76221461028c575b600080fd5b34801561020f57600080fd5b5061022361021e36600461390f565b61070f565b6040516102309190613bf1565b60405180910390f35b34801561024557600080fd5b50610259610254366004613a02565b610a49565b005b34801561026757600080fd5b50600a5461027c90600160e81b900460ff1681565b6040519015158152602001610230565b34801561029857600080fd5b506102596102a7366004613a6d565b610c3d565b3480156102b857600080fd5b506102596102c7366004613a02565b610cc4565b3480156102d857600080fd5b506102ec6102e7366004613a4c565b610d2c565b604051908152602001610230565b34801561030657600080fd5b5061027c610315366004613984565b610dd1565b34801561032657600080fd5b5060095461033a906001600160e81b031681565b6040516001600160e81b039091168152602001610230565b34801561035e57600080fd5b5061037261036d3660046136d0565b610eff565b6040516102309190613bc8565b34801561038b57600080fd5b5061027c61039a366004613716565b610f5c565b3480156103ab57600080fd5b50335b6040516001600160a01b039091168152602001610230565b3480156103d257600080fd5b506102ec6103e1366004613a1c565b611091565b3480156103f257600080fd5b506102ec600c5481565b34801561040857600080fd5b5061025961119b565b34801561041d57600080fd5b5061045d61042c366004613a02565b6007602052600090815260409020546001600160e81b0381169060ff600160e81b8204811691600160f01b90041683565b604080516001600160e81b0390941684529115156020840152151590820152606001610230565b34801561049057600080fd5b5061025961049f366004613a02565b61124c565b3480156104b057600080fd5b506102ec6104bf366004613847565b611441565b3480156104d057600080fd5b506000546001600160a01b03166103ae565b3480156104ee57600080fd5b506000546001600160a01b0316331461027c565b34801561050e57600080fd5b506102ec60085481565b34801561052457600080fd5b506102ec6105333660046137b4565b61188b565b34801561054457600080fd5b506102ec610553366004613a1c565b611915565b34801561056457600080fd5b506001546102ec565b34801561057957600080fd5b5061033a610588366004613a02565b611c91565b34801561059957600080fd5b5061027c6105a8366004613a1c565b600b6020526000908152604090205460ff1681565b3480156105c957600080fd5b50600a5461033a906001600160e81b031681565b3480156105e957600080fd5b506102596105f83660046138ef565b611de6565b34801561060957600080fd5b5061027c610618366004613a02565b6001600160e81b0316600090815260076020526040902054600160f01b900460ff1690565b34801561064957600080fd5b506102ec60025481565b34801561065f57600080fd5b5061027c61066e366004613a1c565b60056020526000908152604090205460ff1681565b34801561068f57600080fd5b5061025961069e3660046136a2565b611ea4565b3480156106af57600080fd5b506106c36106be36600461382b565b611f07565b60405161023093929190613b50565b6102596106e03660046136a2565b6006805473ffffffffffffffffffffffffffffffffffffffff19166001600160a01b0392909216919091179055565b600a54606090600160e81b900460ff16158061073557506000546001600160a01b031633145b6107ac5760405162461bcd60e51b815260206004820152602660248201527f53656d6170686f72653a2062726f616463617374207065726d697373696f6e2060448201527f64656e696564000000000000000000000000000000000000000000000000000060648201526084015b60405180910390fd5b85858585856107ba84611f90565b61082c5760405162461bcd60e51b815260206004820152602c60248201527f53656d6170686f72653a20696e76616c6964206669656c6420656c656d656e7460448201527f28732920696e2070726f6f66000000000000000000000000000000000000000060648201526084016107a3565b6000828152600b602052604090205460ff16156108b15760405162461bcd60e51b815260206004820152602160248201527f53656d6170686f72653a206e756c6c696669657220616c72656164792073656560448201527f6e0000000000000000000000000000000000000000000000000000000000000060648201526084016107a3565b8451602086012060081c7f30644e72e131a029b85045b68181585d2833e84879b9709143e1f593f00000018310610952576040805162461bcd60e51b81526020600482015260248101919091527f53656d6170686f72653a20746865206e756c6c6966696572732068617368206d60448201527f757374206265206c742074686520736e61726b207363616c6172206669656c6460648201526084016107a3565b60408051608081018252858152602081018590529081018290526001600160e81b03831660608201526000808061098889611f07565b92509250925061099a83838387610f5c565b6109e65760405162461bcd60e51b815260206004820152601860248201527f53656d6170686f72653a20696e76616c69642070726f6f66000000000000000060448201526064016107a3565b60008d8152600b6020908152604091829020805460ff191660011790558151808301909252601b82527f62726f616463617374207369676e616c207375636365737366756c0000000000908201529a505050505050505050505095945050505050565b6000546001600160a01b03163314610aa35760405162461bcd60e51b815260206004820181905260248201527f4f776e61626c653a2063616c6c6572206973206e6f7420746865206f776e657260448201526064016107a3565b6001600160e81b038116600090815260076020526040902054600160e81b900460ff16610b385760405162461bcd60e51b815260206004820152602760248201527f53656d6170686f72653a2065787465726e616c206e756c6c6966696572206e6f60448201527f7420666f756e640000000000000000000000000000000000000000000000000060648201526084016107a3565b6001600160e81b038116600090815260076020526040902054600160f01b900460ff161515600114610bd25760405162461bcd60e51b815260206004820152603160248201527f53656d6170686f72653a2065787465726e616c206e756c6c696669657220616c60448201527f726561647920646561637469766174656400000000000000000000000000000060648201526084016107a3565b6001600160e81b03811660008181526007602052604080822080547fff00ffffffffffffffffffffffffffffffffffffffffffffffffffffffffffff169055519091907fb8d2b8a2b352df7f139810483b3c80fc3a4a88711c90bdb7180f1030b7f49acf908390a350565b6006546040517fc1f39c500000000000000000000000000000000000000000000000000000000081526001600160a01b039091169063c1f39c5090610c8c908790879087908790600401613c44565b600060405180830381600087803b158015610ca657600080fd5b505af1158015610cba573d6000803e3d6000fd5b5050505050505050565b6000546001600160a01b03163314610d1e5760405162461bcd60e51b815260206004820181905260248201527f4f776e61626c653a2063616c6c6572206973206e6f7420746865206f776e657260448201526064016107a3565b610d29816000612102565b50565b6000610d3661335b565b838152602081018390526040516314d2f97b60e11b815273__$86e0c54df1042e28bf2dd20ccf184dc428$__906329a5f2f690610d77908490600401613b1f565b60206040518083038186803b158015610d8f57600080fd5b505af4158015610da3573d6000803e3d6000fd5b505050506040513d601f19601f82011682018060405250810190610dc79190613a34565b9150505b92915050565b60408051608081018252858152602081018590529081018390526001600160e81b0382166060820152600090818080610e098a611f07565b60008b8152600b6020526040902054929550909350915060ff16158015610e3857508a5160208c012060081c87145b8015610e4c57508a5160208c012060081c87145b8015610e7757506001600160e81b038616600090815260076020526040902054600160f01b900460ff165b8015610e875750610e878a611f90565b8015610eb257507f30644e72e131a029b85045b68181585d2833e84879b9709143e1f593f000000189105b8015610edd57507f30644e72e131a029b85045b68181585d2833e84879b9709143e1f593f000000188105b8015610ef05750610ef083838387610f5c565b9b9a5050505050505050505050565b610f07613379565b5060408051610100810182528451815260209485015185820152835151918101919091528251840151606082015291830180515160808401525183015160a0830152805160c08301529091015160e082015290565b6000610f66613398565b60408051808201825287518152602080890151818301529083528151608080820184528851518285019081528951840151606084015282528351808501855289840180515182525184015181850152828401528483019190915282518084018452875181528783015181840152848401528251600480825260a0820190945260009390929091908301908036833701905050905060005b60048110156110685784816004811061102657634e487b7160e01b600052603260045260246000fd5b602002015182828151811061104b57634e487b7160e01b600052603260045260246000fd5b60209081029190910101528061106081613e4e565b915050610ffd565b5061107381836122f6565b61108257600192505050611089565b6000925050505b949350505050565b600080546001600160a01b031633146110ec5760405162461bcd60e51b815260206004820181905260248201527f4f776e61626c653a2063616c6c6572206973206e6f7420746865206f776e657260448201526064016107a3565b600c5482141561118a5760405162461bcd60e51b815260206004820152604760248201527f53656d6170686f72653a206964656e7469747920636f6d6d69746d656e74206360448201527f616e6e6f7420626520746865206e6f7468696e672d75702d6d792d736c65657660648201527f652d76616c756500000000000000000000000000000000000000000000000000608482015260a4016107a3565b61119382611915565b90505b919050565b6000546001600160a01b031633146111f55760405162461bcd60e51b815260206004820181905260248201527f4f776e61626c653a2063616c6c6572206973206e6f7420746865206f776e657260448201526064016107a3565b600080546040516001600160a01b03909116907f8be0079c531659141344cd1fd0a4f28419497f9722a3daafe3b4186f6b6457e0908390a36000805473ffffffffffffffffffffffffffffffffffffffff19169055565b6000546001600160a01b031633146112a65760405162461bcd60e51b815260206004820181905260248201527f4f776e61626c653a2063616c6c6572206973206e6f7420746865206f776e657260448201526064016107a3565b6001600160e81b038116600090815260076020526040902054600160e81b900460ff1661133b5760405162461bcd60e51b815260206004820152602760248201527f53656d6170686f72653a2065787465726e616c206e756c6c6966696572206e6f60448201527f7420666f756e640000000000000000000000000000000000000000000000000060648201526084016107a3565b6001600160e81b038116600090815260076020526040902054600160f01b900460ff16156113d15760405162461bcd60e51b815260206004820152602f60248201527f53656d6170686f72653a2065787465726e616c206e756c6c696669657220697360448201527f20616c726561647920616374697665000000000000000000000000000000000060648201526084016107a3565b6001600160e81b03811660008181526007602052604080822080547fff00ffffffffffffffffffffffffffffffffffffffffffffffffffffffffffff16600160f01b17905551600192917fb8d2b8a2b352df7f139810483b3c80fc3a4a88711c90bdb7180f1030b7f49acf91a350565b60408051600b808252610180820190925260009182919060208201610160803683370190505090506114716133e9565b6114796133e9565b60005b85518110156114ea578581815181106114a557634e487b7160e01b600052603260045260246000fd5b60200260200101518482815181106114cd57634e487b7160e01b600052603260045260246000fd5b6020908102919091010152806114e281613e4e565b91505061147c565b5084515b600b81101561153657600084828151811061151957634e487b7160e01b600052603260045260246000fd5b60209081029190910101528061152e81613e4e565b9150506114ee565b5060005b60058110156115f95783818151811061156357634e487b7160e01b600052603260045260246000fd5b602002602001015183826005811061158b57634e487b7160e01b600052603260045260246000fd5b60200201528361159c826005613d01565b815181106115ba57634e487b7160e01b600052603260045260246000fd5b60200260200101518282600581106115e257634e487b7160e01b600052603260045260246000fd5b6020020152806115f181613e4e565b91505061153a565b5061160261335b565b604051630926f44b60e31b815273__$223301b175b06473d424a7afc957d4e96c$__90634937a25890611639908690600401613ba0565b60206040518083038186803b15801561165157600080fd5b505af4158015611665573d6000803e3d6000fd5b505050506040513d601f19601f820116820180604052508101906116899190613a34565b8152604051630926f44b60e31b815273__$223301b175b06473d424a7afc957d4e96c$__90634937a258906116c2908590600401613ba0565b60206040518083038186803b1580156116da57600080fd5b505af41580156116ee573d6000803e3d6000fd5b505050506040513d601f19601f820116820180604052508101906117129190613a34565b602082015261171f61335b565b6040516314d2f97b60e11b815273__$86e0c54df1042e28bf2dd20ccf184dc428$__906329a5f2f690611756908590600401613b1f565b60206040518083038186803b15801561176e57600080fd5b505af4158015611782573d6000803e3d6000fd5b505050506040513d601f19601f820116820180604052508101906117a69190613a34565b815284518590600a9081106117cb57634e487b7160e01b600052603260045260246000fd5b6020026020010151816001600281106117f457634e487b7160e01b600052603260045260246000fd5b60200201526040516314d2f97b60e11b815273__$86e0c54df1042e28bf2dd20ccf184dc428$__906329a5f2f690611830908490600401613b1f565b60206040518083038186803b15801561184857600080fd5b505af415801561185c573d6000803e3d6000fd5b505050506040513d601f19601f820116820180604052508101906118809190613a34565b979650505050505050565b604051630926f44b60e31b815260009073__$223301b175b06473d424a7afc957d4e96c$__90634937a258906118c5908590600401613ba0565b60206040518083038186803b1580156118dd57600080fd5b505af41580156118f1573d6000803e3d6000fd5b505050506040513d601f19601f820116820180604052508101906111939190613a34565b600080546001600160a01b031633146119705760405162461bcd60e51b815260206004820181905260248201527f4f776e61626c653a2063616c6c6572206973206e6f7420746865206f776e657260448201526064016107a3565b7f30644e72e131a029b85045b68181585d2833e84879b9709143e1f593f00000018210611a2b5760405162461bcd60e51b815260206004820152604560248201527f496e6372656d656e74616c5175696e547265653a20696e736572744c6561662060448201527f617267756d656e74206d757374206265203c20534e41524b5f5343414c41525f60648201527f4649454c44000000000000000000000000000000000000000000000000000000608482015260a4016107a3565b600054611a549074010000000000000000000000000000000000000000900460ff166005613d70565b60015410611aca5760405162461bcd60e51b815260206004820152602160248201527f496e6372656d656e74616c5175696e547265653a20747265652069732066756c60448201527f6c0000000000000000000000000000000000000000000000000000000000000060648201526084016107a3565b60015482611ad66133e9565b6000611ae3600585613e89565b905060005b60005460ff7401000000000000000000000000000000000000000090910481169082161015611c235781611b635760015b600560ff82161015611b615760ff8083166000908152600360209081526040808320546004835281842094861684529390915290205580611b5981613e69565b915050611b19565b505b60ff8116600090815260046020908152604080832085845290915281208590555b600560ff82161015611beb5760ff80831660009081526004602090815260408083209385168084529390915290205490859060058110611bd457634e487b7160e01b600052603260045260246000fd5b602002015280611be381613e69565b915050611b84565b50611bf58361188b565b9350611c02600586613d19565b9450611c0f600586613e89565b915080611c1b81613e69565b915050611ae8565b5060028390556000838152600560205260408120805460ff191660019081179091558054918190611c548285613d01565b9091555050604051819088907fe6f49fa84abd31919f446b22a52bb3ceae774b4b87f062f022fec45c46f4f45890600090a3509295945050505050565b6001600160e81b038116600090815260076020526040812054600160e81b900460ff16611d265760405162461bcd60e51b815260206004820152602560248201527f53656d6170686f72653a206e6f20737563682065787465726e616c206e756c6c60448201527f696669657200000000000000000000000000000000000000000000000000000060648201526084016107a3565b6001600160e81b038083166000908152600760205260409020546008549116906001108015611d7457506001600160e81b038116600090815260076020526040902054600160e81b900460ff165b610dcb5760405162461bcd60e51b815260206004820152603f60248201527f53656d6170686f72653a206e6f2065787465726e616c206e756c6c696669657260448201527f206578697374732061667465722074686520737065636966696564206f6e650060648201526084016107a3565b6000546001600160a01b03163314611e405760405162461bcd60e51b815260206004820181905260248201527f4f776e61626c653a2063616c6c6572206973206e6f7420746865206f776e657260448201526064016107a3565b600a80547fffff00ffffffffffffffffffffffffffffffffffffffffffffffffffffffffff16600160e81b831515908102919091179091556040517ffba91b9002bc7732a7bff1b44ee16a30ebaeb06d7921779034c6a6ab27e69c2790600090a250565b6000546001600160a01b03163314611efe5760405162461bcd60e51b815260206004820181905260248201527f4f776e61626c653a2063616c6c6572206973206e6f7420746865206f776e657260448201526064016107a3565b610d2981612529565b611f0f61335b565b611f17613407565b611f1f61335b565b50506040805180820182528351815260208085015181830152825160808082018552868501518286019081526060808901519084015282528451808601865290870151815260a08701518184015281830152835180850190945260c0860151845260e0909501519083015293909150565b80516000907f30644e72e131a029b85045b68181585d2833e84879b9709143e1f593f0000001118015611fe6575060208201517f30644e72e131a029b85045b68181585d2833e84879b9709143e1f593f0000001115b8015612015575060408201517f30644e72e131a029b85045b68181585d2833e84879b9709143e1f593f0000001115b8015612044575060608201517f30644e72e131a029b85045b68181585d2833e84879b9709143e1f593f0000001115b8015612073575060808201517f30644e72e131a029b85045b68181585d2833e84879b9709143e1f593f0000001115b80156120a2575060a08201517f30644e72e131a029b85045b68181585d2833e84879b9709143e1f593f0000001115b80156120d1575060c08201517f30644e72e131a029b85045b68181585d2833e84879b9709143e1f593f0000001115b801561119357505060e001517f30644e72e131a029b85045b68181585d2833e84879b9709143e1f593f00000011190565b801561214057600980547fffffff0000000000000000000000000000000000000000000000000000000000166001600160e81b038416179055612220565b6001600160e81b038216600090815260076020526040902054600160e81b900460ff16156121d65760405162461bcd60e51b815260206004820152602960248201527f53656d6170686f72653a2065787465726e616c206e756c6c696669657220616c60448201527f726561647920736574000000000000000000000000000000000000000000000060648201526084016107a3565b600a546001600160e81b03908116600090815260076020526040902080547fffffff0000000000000000000000000000000000000000000000000000000000169184169190911790555b6001600160e81b038216600081815260076020526040812080547fff00000000000000000000000000000000000000000000000000000000000000167e01010000000000000000000000000000000000000000000000000000000000179055600a80547fffffff00000000000000000000000000000000000000000000000000000000001690921790915560088054916122b983613e4e565b90915550506040516001600160e81b038316907fd1ca56647596090d70fa8d49bcc376b97248314e3f204c491333b3440405f58990600090a25050565b60007f30644e72e131a029b85045b68181585d2833e84879b9709143e1f593f00000018161232261260d565b9050806080015151855160016123389190613d01565b146123855760405162461bcd60e51b815260206004820152601260248201527f76657269666965722d6261642d696e707574000000000000000000000000000060448201526064016107a3565b604080518082019091526000808252602082018190525b86518110156124a057838782815181106123c657634e487b7160e01b600052603260045260246000fd5b60200260200101511061241b5760405162461bcd60e51b815260206004820152601f60248201527f76657269666965722d6774652d736e61726b2d7363616c61722d6669656c640060448201526064016107a3565b61248c8261248785608001518460016124349190613d01565b8151811061245257634e487b7160e01b600052603260045260246000fd5b60200260200101518a858151811061247a57634e487b7160e01b600052603260045260246000fd5b6020026020010151612b53565b612bfa565b91508061249881613e4e565b91505061239c565b506124d78183608001516000815181106124ca57634e487b7160e01b600052603260045260246000fd5b6020026020010151612bfa565b905061250d6124e98660000151612c9d565b8660200151846000015185602001518587604001518b604001518960600151612d3c565b61251d5760019350505050610dcb565b50600095945050505050565b6001600160a01b0381166125a55760405162461bcd60e51b815260206004820152602660248201527f4f776e61626c653a206e6577206f776e657220697320746865207a65726f206160448201527f646472657373000000000000000000000000000000000000000000000000000060648201526084016107a3565b600080546040516001600160a01b03808516939216917f8be0079c531659141344cd1fd0a4f28419497f9722a3daafe3b4186f6b6457e091a36000805473ffffffffffffffffffffffffffffffffffffffff19166001600160a01b0392909216919091179055565b612615613434565b6040805180820182527f2d4d9aa7e302d9df41749d5507949d05dbea33fbb16c643b22f599a2be6df2e281527f14bedd503c37ceb061d8ec60209fe345ce89830a19230301f076caff004d19266020808301919091529083528151608080820184527f0967032fcbf776d1afc985f88877f182d38480a653f2decaa9794cbc3bf3060c8285019081527f0e187847ad4c798374d0d6732bf501847dd68bc0e071241e0213bc7fc13db7ab606080850191909152908352845180860186527f304cfbd1e08a704a99f5e847d93f8c3caafddec46b7a0d379da69a4d112346a781527f1739c1b1a457a8c7313123d24d2f9192f896b7c63eea05a9d57f06547ad0cec8818601528385015285840192909252835180820185527f198e9393920d483a7260bfb731fb5d25f1aa493335a9e71297e485b7aef312c28186019081527f1800deef121f1e76426a00665e5c4479674322d4f75edadd46debd5cd992f6ed828501528152845180860186527f090689d0585ff075ec9e99ad690c3395bc4b313370b38ef355acdadcd122975b81527f12c85ea5db8c6deb4aab71808dcb408fe3d1e7690c43d37b4ce6cc0166fa7daa818601528185015285850152835190810184527f1bdb443ce61ebcf93daed4215a57e1cec90ca64973023e31197a112e8cee72f68185019081527f117e26c4235f42625b3404f2973059814ff260dba7176d7aae910f493a8e1fb5828401528152835180850185527f196e247a12f580e36894f256f0c122393489b4c213b3e913250feee806ca45ff81527f2fedff4e4bbcbf9f1c56e28a060d50eef5f54e2aab897f6b465acd2ed005ae918185015281840152908401528151600580825260c08201909352919082015b604080518082019091526000808252602082015281526020019060019003908161289057505060808201908152604080518082019091527f0f07e0d71f6e287a9d2409daf4d2c4d3e4c217434dbfedcd7b95e4f14a2a9ce381527f1825da28e988768b067722947fedc4f23bbb448a7d524cbbaa9f13cc50c5f16e60208201529051805160009061293157634e487b7160e01b600052603260045260246000fd5b602002602001018190525060405180604001604052807f1bfec925d9158887f4ffed14fdcba2ea4301febd2b700676ad3f2c35f1dd019081526020017f2e45a0da85d21b50af5e656718d90c46575c2f4967fd77008e47e86e128398a881525081608001516001815181106129b657634e487b7160e01b600052603260045260246000fd5b602002602001018190525060405180604001604052807f02df25fc4b8cc3309168bb640889caddbd0230d0d2827a011bfc9a33d31ebc7f81526020017f2df627f9de13cb62a404ba7c28d9a6e5563678661c8f4f56cd6b38a3487a23d98152508160800151600281518110612a3b57634e487b7160e01b600052603260045260246000fd5b602002602001018190525060405180604001604052807f16d601cddbc5bd49c1e4eed5cfb17980a7c7bcd342a7871b4ac1d12f3c6c34be81526020017f033cde6708b92b13702189aa346cd0ff7db9468d22ac204d81068d4712887dc38152508160800151600381518110612ac057634e487b7160e01b600052603260045260246000fd5b602002602001018190525060405180604001604052807f1198e1d463542a534d3797ab641f86c3dcd0efd3797a5719a491e60fec3872eb81526020017f2afc8d11c24efc8e11bf7b3e003692455645a3eab2efff3070f10c15bcb07bac8152508160800151600481518110612b4557634e487b7160e01b600052603260045260246000fd5b602002602001018190525090565b6040805180820190915260008082526020820152612b6f613485565b835181526020808501519082015260408101839052600060608360808460076107d05a03fa9050808015612ba257612ba4565bfe5b5080612bf25760405162461bcd60e51b815260206004820152601260248201527f70616972696e672d6d756c2d6661696c6564000000000000000000000000000060448201526064016107a3565b505092915050565b6040805180820190915260008082526020820152612c166134a3565b8351815260208085015181830152835160408301528301516060808301919091526000908360c08460066107d05a03fa9050808015612ba2575080612bf25760405162461bcd60e51b815260206004820152601260248201527f70616972696e672d6164642d6661696c6564000000000000000000000000000060448201526064016107a3565b604080518082019091526000808252602082015281517f30644e72e131a029b85045b68181585d97816a916871ca8d3c208c16d87cfd4790158015612ce457506020830151155b15612d045750506040805180820190915260008082526020820152919050565b604051806040016040528084600001518152602001828560200151612d299190613e89565b612d339084613e37565b90529392505050565b60408051600480825260a08201909252600091829190816020015b6040805180820190915260008082526020820152815260200190600190039081612d5757505060408051600480825260a0820190925291925060009190602082015b612da16134c1565b815260200190600190039081612d995790505090508a82600081518110612dd857634e487b7160e01b600052603260045260246000fd5b60200260200101819052508882600181518110612e0557634e487b7160e01b600052603260045260246000fd5b60200260200101819052508682600281518110612e3257634e487b7160e01b600052603260045260246000fd5b60200260200101819052508482600381518110612e5f57634e487b7160e01b600052603260045260246000fd5b60200260200101819052508981600081518110612e8c57634e487b7160e01b600052603260045260246000fd5b60200260200101819052508781600181518110612eb957634e487b7160e01b600052603260045260246000fd5b60200260200101819052508581600281518110612ee657634e487b7160e01b600052603260045260246000fd5b60200260200101819052508381600381518110612f1357634e487b7160e01b600052603260045260246000fd5b6020026020010181905250610ef0828260008151835114612f765760405162461bcd60e51b815260206004820152601660248201527f70616972696e672d6c656e677468732d6661696c65640000000000000000000060448201526064016107a3565b82516000612f85826006613e18565b905060008167ffffffffffffffff811115612fb057634e487b7160e01b600052604160045260246000fd5b604051908082528060200260200182016040528015612fd9578160200160208202803683370190505b50905060005b838110156132d85786818151811061300757634e487b7160e01b600052603260045260246000fd5b602002602001015160000151828260066130219190613e18565b61302c906000613d01565b8151811061304a57634e487b7160e01b600052603260045260246000fd5b60200260200101818152505086818151811061307657634e487b7160e01b600052603260045260246000fd5b602002602001015160200151828260066130909190613e18565b61309b906001613d01565b815181106130b957634e487b7160e01b600052603260045260246000fd5b6020026020010181815250508581815181106130e557634e487b7160e01b600052603260045260246000fd5b60209081029190910101515151826130fe836006613e18565b613109906002613d01565b8151811061312757634e487b7160e01b600052603260045260246000fd5b60200260200101818152505085818151811061315357634e487b7160e01b600052603260045260246000fd5b6020908102919091018101515101518261316e836006613e18565b613179906003613d01565b8151811061319757634e487b7160e01b600052603260045260246000fd5b6020026020010181815250508581815181106131c357634e487b7160e01b600052603260045260246000fd5b6020026020010151602001516000600281106131ef57634e487b7160e01b600052603260045260246000fd5b602002015182613200836006613e18565b61320b906004613d01565b8151811061322957634e487b7160e01b600052603260045260246000fd5b60200260200101818152505085818151811061325557634e487b7160e01b600052603260045260246000fd5b60200260200101516020015160016002811061328157634e487b7160e01b600052603260045260246000fd5b602002015182613292836006613e18565b61329d906005613d01565b815181106132bb57634e487b7160e01b600052603260045260246000fd5b6020908102919091010152806132d081613e4e565b915050612fdf565b506132e16134e1565b6000602082602086026020860160086107d05a03fa9050808015612ba257508061334d5760405162461bcd60e51b815260206004820152601560248201527f70616972696e672d6f70636f64652d6661696c6564000000000000000000000060448201526064016107a3565b505115159695505050505050565b60405180604001604052806002906020820280368337509192915050565b6040518061010001604052806008906020820280368337509192915050565b6040805160a0810190915260006060820181815260808301919091528152602081016133c26134c1565b81526020016133e4604051806040016040528060008152602001600081525090565b905290565b6040518060a001604052806005906020820280368337509192915050565b60405180604001604052806002905b61341e61335b565b8152602001906001900390816134165790505090565b6040805160e08101909152600060a0820181815260c083019190915281526020810161345e6134c1565b815260200161346b6134c1565b81526020016134786134c1565b8152602001606081525090565b60405180606001604052806003906020820280368337509192915050565b60405180608001604052806004906020820280368337509192915050565b60405180604001604052806134d461335b565b81526020016133e461335b565b60405180602001604052806001906020820280368337509192915050565b600082601f83011261350f578081fd5b613517613c84565b808385608086011115613528578384fd5b835b60028110156135545761353d878361355f565b84526020909301926040919091019060010161352a565b509095945050505050565b600082601f83011261356f578081fd5b613577613c84565b808385604086011115613588578384fd5b835b600281101561355457813584526020938401939091019060010161358a565b600082601f8301126135b9578081fd5b60405161010080820182811067ffffffffffffffff821117156135de576135de613ec9565b60405281848281018710156135f1578485fd5b8492505b6008831015613615578035825260019290920191602091820191016135f5565b509195945050505050565b600082601f830112613630578081fd5b813567ffffffffffffffff81111561364a5761364a613ec9565b61365d6020601f19601f84011601613cd0565b818152846020838601011115613671578283fd5b816020850160208301379081016020019190915292915050565b80356001600160e81b038116811461119657600080fd5b6000602082840312156136b3578081fd5b81356001600160a01b03811681146136c9578182fd5b9392505050565b600080600061010084860312156136e5578182fd5b6136ef858561355f565b92506136fe85604086016134ff565b915061370d8560c0860161355f565b90509250925092565b60008060008061018080868803121561372d578283fd5b613737878761355f565b945061374687604088016134ff565b93506137558760c0880161355f565b92508661011f870112613766578182fd5b61376e613cad565b80610100880189848a011115613782578485fd5b8493505b60048410156137a657803583526001939093019260209283019201613786565b509598949750929550505050565b600060a082840312156137c5578081fd5b82601f8301126137d3578081fd5b60405160a0810181811067ffffffffffffffff821117156137f6576137f6613ec9565b604052808360a0810186101561380a578384fd5b835b600581101561361557813583526020928301929091019060010161380c565b6000610100828403121561383d578081fd5b6136c983836135a9565b60006020808385031215613859578182fd5b823567ffffffffffffffff80821115613870578384fd5b818501915085601f830112613883578384fd5b81358181111561389557613895613ec9565b8060051b91506138a6848301613cd0565b8181528481019084860184860187018a10156138c0578788fd5b8795505b838610156138e25780358352600195909501949186019186016138c4565b5098975050505050505050565b600060208284031215613900578081fd5b813580151581146136c9578182fd5b60008060008060006101808688031215613927578283fd5b853567ffffffffffffffff81111561393d578384fd5b61394988828901613620565b95505061395987602088016135a9565b935061012086013592506101408601359150613978610160870161368b565b90509295509295909350565b6000806000806000806101a0878903121561399d578384fd5b863567ffffffffffffffff8111156139b3578485fd5b6139bf89828a01613620565b9650506139cf88602089016135a9565b94506101208701359350610140870135925061016087013591506139f6610180880161368b565b90509295509295509295565b600060208284031215613a13578081fd5b6136c98261368b565b600060208284031215613a2d578081fd5b5035919050565b600060208284031215613a45578081fd5b5051919050565b60008060408385031215613a5e578182fd5b50508035926020909101359150565b60008060008060608587031215613a82578182fd5b84359350602085013560ff81168114613a99578283fd5b9250604085013567ffffffffffffffff80821115613ab5578384fd5b818701915087601f830112613ac8578384fd5b813581811115613ad6578485fd5b886020828501011115613ae7578485fd5b95989497505060200194505050565b8060005b6002811015613b19578151845260209384019390910190600101613afa565b50505050565b60408101818360005b6002811015613b47578151835260209283019290910190600101613b28565b50505092915050565b6101008101613b5f8286613af6565b60408083018560005b6002811015613b8f57613b7c838351613af6565b9183019160209190910190600101613b68565b5050505061108960c0830184613af6565b60a08101818360005b6005811015613b47578151835260209283019290910190600101613ba9565b6101008101818360005b6008811015613b47578151835260209283019290910190600101613bd2565b6000602080835283518082850152825b81811015613c1d57858101830151858201604001528201613c01565b81811115613c2e5783604083870101525b50601f01601f1916929092016040019392505050565b84815260ff8416602082015260606040820152816060820152818360808301376000818301608090810191909152601f909201601f191601019392505050565b6040805190810167ffffffffffffffff81118282101715613ca757613ca7613ec9565b60405290565b6040516080810167ffffffffffffffff81118282101715613ca757613ca7613ec9565b604051601f8201601f1916810167ffffffffffffffff81118282101715613cf957613cf9613ec9565b604052919050565b60008219821115613d1457613d14613e9d565b500190565b600082613d2857613d28613eb3565b500490565b600181815b80851115613d68578160001904821115613d4e57613d4e613e9d565b80851615613d5b57918102915b93841c9390800290613d32565b509250929050565b60006136c98383600082613d8657506001610dcb565b81613d9357506000610dcb565b8160018114613da95760028114613db357613dcf565b6001915050610dcb565b60ff841115613dc457613dc4613e9d565b50506001821b610dcb565b5060208310610133831016604e8410600b8410161715613df2575081810a610dcb565b613dfc8383613d2d565b8060001904821115613e1057613e10613e9d565b029392505050565b6000816000190483118215151615613e3257613e32613e9d565b500290565b600082821015613e4957613e49613e9d565b500390565b6000600019821415613e6257613e62613e9d565b5060010190565b600060ff821660ff811415613e8057613e80613e9d565b60010192915050565b600082613e9857613e98613eb3565b500690565b634e487b7160e01b600052601160045260246000fd5b634e487b7160e01b600052601260045260246000fd5b634e487b7160e01b600052604160045260246000fdfea2646970667358221220b6c9d6ec690d65749e38ab22402358922df0bc86c9e78f34fc8e171366bad49b64736f6c63430008040033",
  "linkReferences": {
    "contracts/Poseidon.sol": {
      "PoseidonT3": [
        {
          "length": 20,
          "start": 4889
        },
        {
          "length": 20,
          "start": 7416
        },
        {
          "length": 20,
          "start": 7634
        }
      ],
      "PoseidonT6": [
        {
          "length": 20,
          "start": 644
        },
        {
          "length": 20,
          "start": 7131
        },
        {
          "length": 20,
          "start": 7268
        },
        {
          "length": 20,
          "start": 7783
        }
      ]
    }
  },
  "deployedLinkReferences": {
    "contracts/Poseidon.sol": {
      "PoseidonT3": [
        {
          "length": 20,
          "start": 3407
        },
        {
          "length": 20,
          "start": 5934
        },
        {
          "length": 20,
          "start": 6152
        }
      ],
      "PoseidonT6": [
        {
          "length": 20,
          "start": 5649
        },
        {
          "length": 20,
          "start": 5786
        },
        {
          "length": 20,
          "start": 6301
        }
      ]
    }
  }
}