{
  "_format": "hh-sol-artifact-1",
  "contractName": "IncrementalQuinTree",
  "sourceName": "contracts/IncrementalMerkleTree.sol",
  "abi": [
    {
      "inputs": [
        {
          "internalType": "uint8",
          "name": "_treeLevels",
          "type": "uint8"
        },
        {
          "internalType": "uint256",
          "name": "_zeroValue",
          "type": "uint256"
        }
      ],
      "stateMutability": "nonpayable",
      "type": "constructor"
    },
    {
      "anonymous": false,
      "inputs": [
        {
          "indexed": true,
          "internalType": "uint256",
          "name": "leaf",
          "type": "uint256"
        },
        {
          "indexed": true,
          "internalType": "uint256",
          "name": "leafIndex",
          "type": "uint256"
        }
      ],
      "name": "LeafInsertion",
      "type": "event"
    },
    {
      "anonymous": false,
      "inputs": [
        {
          "indexed": true,
          "internalType": "address",
          "name": "previousOwner",
          "type": "address"
        },
        {
          "indexed": true,
          "internalType": "address",
          "name": "newOwner",
          "type": "address"
        }
      ],
      "name": "OwnershipTransferred",
      "type": "event"
    },
    {
      "inputs": [
        {
          "internalType": "uint256[]",
          "name": "array",
          "type": "uint256[]"
        }
      ],
      "name": "hash11",
      "outputs": [
        {
          "internalType": "uint256",
          "name": "",
          "type": "uint256"
        }
      ],
      "stateMutability": "pure",
      "type": "function"
    },
    {
      "inputs": [
        {
          "internalType": "uint256[5]",
          "name": "array",
          "type": "uint256[5]"
        }
      ],
      "name": "hash5",
      "outputs": [
        {
          "internalType": "uint256",
          "name": "",
          "type": "uint256"
        }
      ],
      "stateMutability": "pure",
      "type": "function"
    },
    {
      "inputs": [
        {
          "internalType": "uint256",
          "name": "_left",
          "type": "uint256"
        },
        {
          "internalType": "uint256",
          "name": "_right",
          "type": "uint256"
        }
      ],
      "name": "hashLeftRight",
      "outputs": [
        {
          "internalType": "uint256",
          "name": "",
          "type": "uint256"
        }
      ],
      "stateMutability": "pure",
      "type": "function"
    },
    {
      "inputs": [
        {
          "internalType": "uint256",
          "name": "_leaf",
          "type": "uint256"
        }
      ],
      "name": "insertLeaf",
      "outputs": [
        {
          "internalType": "uint256",
          "name": "",
          "type": "uint256"
        }
      ],
      "stateMutability": "nonpayable",
      "type": "function"
    },
    {
      "inputs": [],
      "name": "isOwner",
      "outputs": [
        {
          "internalType": "bool",
          "name": "",
          "type": "bool"
        }
      ],
      "stateMutability": "view",
      "type": "function"
    },
    {
      "inputs": [],
      "name": "owner",
      "outputs": [
        {
          "internalType": "address",
          "name": "",
          "type": "address"
        }
      ],
      "stateMutability": "view",
      "type": "function"
    },
    {
      "inputs": [],
      "name": "renounceOwnership",
      "outputs": [],
      "stateMutability": "nonpayable",
      "type": "function"
    },
    {
      "inputs": [],
      "name": "root",
      "outputs": [
        {
          "internalType": "uint256",
          "name": "",
          "type": "uint256"
        }
      ],
      "stateMutability": "view",
      "type": "function"
    },
    {
      "inputs": [
        {
          "internalType": "uint256",
          "name": "",
          "type": "uint256"
        }
      ],
      "name": "rootHistory",
      "outputs": [
        {
          "internalType": "bool",
          "name": "",
          "type": "bool"
        }
      ],
      "stateMutability": "view",
      "type": "function"
    },
    {
      "inputs": [
        {
          "internalType": "address",
          "name": "newOwner",
          "type": "address"
        }
      ],
      "name": "transferOwnership",
      "outputs": [],
      "stateMutability": "nonpayable",
      "type": "function"
    }
  ],
  "bytecode": "0x608060405260006001553480156200001657600080fd5b506040516200147b3803806200147b83398101604081905262000039916200029e565b600080546001600160a01b0319163390811782556040519091907f8be0079c531659141344cd1fd0a4f28419497f9722a3daafe3b4186f6b6457e0908290a360008260ff16118015620000905750602060ff831611155b620001075760405162461bcd60e51b815260206004820152603960248201527f496e6372656d656e74616c5175696e547265653a205f747265654c6576656c7360448201527f206d757374206265206265747765656e203020616e6420333300000000000000606482015260840160405180910390fd5b6000805460ff60a01b1916600160a01b60ff851602179055806200012a62000267565b60005b8460ff168160ff161015620001c35760005b600560ff821610156200018b5783838260ff16600581106200017157634e487b7160e01b600052603260045260246000fd5b602002015280620001828162000305565b9150506200013f565b5060ff81166000908152600360205260409020839055620001ac82620001d1565b925080620001ba8162000305565b9150506200012d565b505060025550620003329050565b604051630926f44b60e31b815260009073__$223301b175b06473d424a7afc957d4e96c$__90634937a258906200020d908590600401620002d2565b60206040518083038186803b1580156200022657600080fd5b505af41580156200023b573d6000803e3d6000fd5b505050506040513d601f19601f8201168201806040525081019062000261919062000285565b92915050565b6040518060a001604052806005906020820280368337509192915050565b60006020828403121562000297578081fd5b5051919050565b60008060408385031215620002b1578081fd5b825160ff81168114620002c2578182fd5b6020939093015192949293505050565b60a08101818360005b6005811015620002fc578151835260209283019290910190600101620002db565b50505092915050565b600060ff821660ff8114156200032957634e487b7160e01b82526011600452602482fd5b60010192915050565b61113980620003426000396000f3fe608060405234801561001057600080fd5b50600436106100be5760003560e01c80639cfced9711610076578063ebf0c7171161005b578063ebf0c71714610166578063f1c621ee1461016f578063f2fde38b1461019257600080fd5b80639cfced9714610140578063b72024341461015357600080fd5b80638a1a52d2116100a75780638a1a52d2146100f35780638da5cb5b146101065780638f32d59b1461012157600080fd5b80635bb93995146100c3578063715018a6146100e9575b600080fd5b6100d66100d1366004610e92565b6101a5565b6040519081526020015b60405180910390f35b6100f161024a565b005b6100d6610101366004610dba565b61030b565b6000546040516001600160a01b0390911681526020016100e0565b6000546001600160a01b031633145b60405190151581526020016100e0565b6100d661014e366004610d38565b610755565b6100d6610161366004610e62565b6107df565b6100d660025481565b61013061017d366004610e62565b60056020526000908152604090205460ff1681565b6100f16101a0366004610d0a565b610b79565b60006101af610cce565b838152602081018390526040516314d2f97b60e11b815273__$86e0c54df1042e28bf2dd20ccf184dc428$__906329a5f2f6906101f0908490600401610eb3565b60206040518083038186803b15801561020857600080fd5b505af415801561021c573d6000803e3d6000fd5b505050506040513d601f19601f820116820180604052508101906102409190610e7a565b9150505b92915050565b6000546001600160a01b031633146102a95760405162461bcd60e51b815260206004820181905260248201527f4f776e61626c653a2063616c6c6572206973206e6f7420746865206f776e657260448201526064015b60405180910390fd5b600080546040516001600160a01b03909116907f8be0079c531659141344cd1fd0a4f28419497f9722a3daafe3b4186f6b6457e0908390a3600080547fffffffffffffffffffffffff0000000000000000000000000000000000000000169055565b60408051600b8082526101808201909252600091829190602082016101608036833701905050905061033b610cec565b610343610cec565b60005b85518110156103b45785818151811061036f57634e487b7160e01b600052603260045260246000fd5b602002602001015184828151811061039757634e487b7160e01b600052603260045260246000fd5b6020908102919091010152806103ac81611072565b915050610346565b5084515b600b8110156104005760008482815181106103e357634e487b7160e01b600052603260045260246000fd5b6020908102919091010152806103f881611072565b9150506103b8565b5060005b60058110156104c35783818151811061042d57634e487b7160e01b600052603260045260246000fd5b602002602001015183826005811061045557634e487b7160e01b600052603260045260246000fd5b602002015283610466826005610f5b565b8151811061048457634e487b7160e01b600052603260045260246000fd5b60200260200101518282600581106104ac57634e487b7160e01b600052603260045260246000fd5b6020020152806104bb81611072565b915050610404565b506104cc610cce565b604051630926f44b60e31b815273__$223301b175b06473d424a7afc957d4e96c$__90634937a25890610503908690600401610ee4565b60206040518083038186803b15801561051b57600080fd5b505af415801561052f573d6000803e3d6000fd5b505050506040513d601f19601f820116820180604052508101906105539190610e7a565b8152604051630926f44b60e31b815273__$223301b175b06473d424a7afc957d4e96c$__90634937a2589061058c908590600401610ee4565b60206040518083038186803b1580156105a457600080fd5b505af41580156105b8573d6000803e3d6000fd5b505050506040513d601f19601f820116820180604052508101906105dc9190610e7a565b60208201526105e9610cce565b6040516314d2f97b60e11b815273__$86e0c54df1042e28bf2dd20ccf184dc428$__906329a5f2f690610620908590600401610eb3565b60206040518083038186803b15801561063857600080fd5b505af415801561064c573d6000803e3d6000fd5b505050506040513d601f19601f820116820180604052508101906106709190610e7a565b815284518590600a90811061069557634e487b7160e01b600052603260045260246000fd5b6020026020010151816001600281106106be57634e487b7160e01b600052603260045260246000fd5b60200201526040516314d2f97b60e11b815273__$86e0c54df1042e28bf2dd20ccf184dc428$__906329a5f2f6906106fa908490600401610eb3565b60206040518083038186803b15801561071257600080fd5b505af4158015610726573d6000803e3d6000fd5b505050506040513d601f19601f8201168201806040525081019061074a9190610e7a565b979650505050505050565b604051630926f44b60e31b815260009073__$223301b175b06473d424a7afc957d4e96c$__90634937a2589061078f908590600401610ee4565b60206040518083038186803b1580156107a757600080fd5b505af41580156107bb573d6000803e3d6000fd5b505050506040513d601f19601f820116820180604052508101906102449190610e7a565b600080546001600160a01b0316331461083a5760405162461bcd60e51b815260206004820181905260248201527f4f776e61626c653a2063616c6c6572206973206e6f7420746865206f776e657260448201526064016102a0565b7f30644e72e131a029b85045b68181585d2833e84879b9709143e1f593f000000182106108f55760405162461bcd60e51b815260206004820152604560248201527f496e6372656d656e74616c5175696e547265653a20696e736572744c6561662060448201527f617267756d656e74206d757374206265203c20534e41524b5f5343414c41525f60648201527f4649454c44000000000000000000000000000000000000000000000000000000608482015260a4016102a0565b60005461091e9074010000000000000000000000000000000000000000900460ff166005610fca565b600154106109945760405162461bcd60e51b815260206004820152602160248201527f496e6372656d656e74616c5175696e547265653a20747265652069732066756c60448201527f6c0000000000000000000000000000000000000000000000000000000000000060648201526084016102a0565b600154826109a0610cec565b60006109ad6005856110ad565b905060005b60005460ff7401000000000000000000000000000000000000000090910481169082161015610aed5781610a2d5760015b600560ff82161015610a2b5760ff8083166000908152600360209081526040808320546004835281842094861684529390915290205580610a238161108d565b9150506109e3565b505b60ff8116600090815260046020908152604080832085845290915281208590555b600560ff82161015610ab55760ff80831660009081526004602090815260408083209385168084529390915290205490859060058110610a9e57634e487b7160e01b600052603260045260246000fd5b602002015280610aad8161108d565b915050610a4e565b50610abf83610755565b9350610acc600586610f73565b9450610ad96005866110ad565b915080610ae58161108d565b9150506109b2565b506002839055600083815260056020526040812080547fffffffffffffffffffffffffffffffffffffffffffffffffffffffffffffff001660019081179091558054918190610b3c8285610f5b565b9091555050604051819088907fe6f49fa84abd31919f446b22a52bb3ceae774b4b87f062f022fec45c46f4f45890600090a3509295945050505050565b6000546001600160a01b03163314610bd35760405162461bcd60e51b815260206004820181905260248201527f4f776e61626c653a2063616c6c6572206973206e6f7420746865206f776e657260448201526064016102a0565b610bdc81610bdf565b50565b6001600160a01b038116610c5b5760405162461bcd60e51b815260206004820152602660248201527f4f776e61626c653a206e6577206f776e657220697320746865207a65726f206160448201527f646472657373000000000000000000000000000000000000000000000000000060648201526084016102a0565b600080546040516001600160a01b03808516939216917f8be0079c531659141344cd1fd0a4f28419497f9722a3daafe3b4186f6b6457e091a3600080547fffffffffffffffffffffffff0000000000000000000000000000000000000000166001600160a01b0392909216919091179055565b60405180604001604052806002906020820280368337509192915050565b6040518060a001604052806005906020820280368337509192915050565b600060208284031215610d1b578081fd5b81356001600160a01b0381168114610d31578182fd5b9392505050565b600060a08284031215610d49578081fd5b82601f830112610d57578081fd5b60405160a0810181811067ffffffffffffffff82111715610d7a57610d7a6110ed565b604052808360a08101861015610d8e578384fd5b835b6005811015610daf578135835260209283019290910190600101610d90565b509195945050505050565b60006020808385031215610dcc578182fd5b823567ffffffffffffffff80821115610de3578384fd5b818501915085601f830112610df6578384fd5b813581811115610e0857610e086110ed565b8060051b9150610e19848301610f0c565b8181528481019084860184860187018a1015610e33578788fd5b8795505b83861015610e55578035835260019590950194918601918601610e37565b5098975050505050505050565b600060208284031215610e73578081fd5b5035919050565b600060208284031215610e8b578081fd5b5051919050565b60008060408385031215610ea4578081fd5b50508035926020909101359150565b60408101818360005b6002811015610edb578151835260209283019290910190600101610ebc565b50505092915050565b60a08101818360005b6005811015610edb578151835260209283019290910190600101610eed565b604051601f82017fffffffffffffffffffffffffffffffffffffffffffffffffffffffffffffffe016810167ffffffffffffffff81118282101715610f5357610f536110ed565b604052919050565b60008219821115610f6e57610f6e6110c1565b500190565b600082610f8257610f826110d7565b500490565b600181815b80851115610fc2578160001904821115610fa857610fa86110c1565b80851615610fb557918102915b93841c9390800290610f8c565b509250929050565b6000610d318383600082610fe057506001610244565b81610fed57506000610244565b8160018114611003576002811461100d57611029565b6001915050610244565b60ff84111561101e5761101e6110c1565b50506001821b610244565b5060208310610133831016604e8410600b841016171561104c575081810a610244565b6110568383610f87565b806000190482111561106a5761106a6110c1565b029392505050565b6000600019821415611086576110866110c1565b5060010190565b600060ff821660ff8114156110a4576110a46110c1565b60010192915050565b6000826110bc576110bc6110d7565b500690565b634e487b7160e01b600052601160045260246000fd5b634e487b7160e01b600052601260045260246000fd5b634e487b7160e01b600052604160045260246000fdfea264697066735822122016a98bb2844ccd247ef8ea6a49336d10c44c999c64eb308a47f265fa2c092cee64736f6c63430008040033",
  "linkReferences": {
    "contracts/Poseidon.sol": {
      "PoseidonT3": [
        {
          "length": 20,
          "start": 1290
        },
        {
          "length": 20,
          "start": 2362
        },
        {
          "length": 20,
          "start": 2580
        }
      ],
      "PoseidonT6": [
        {
          "length": 20,
          "start": 483
        },
        {
          "length": 20,
          "start": 2077
        },
        {
          "length": 20,
          "start": 2214
        },
        {
          "length": 20,
          "start": 2729
        }
      ]
    }
  },
  "deployedLinkReferences": {
    "contracts/Poseidon.sol": {
      "PoseidonT3": [
        {
          "length": 20,
          "start": 456
        },
        {
          "length": 20,
          "start": 1528
        },
        {
          "length": 20,
          "start": 1746
        }
      ],
      "PoseidonT6": [
        {
          "length": 20,
          "start": 1243
        },
        {
          "length": 20,
          "start": 1380
        },
        {
          "length": 20,
          "start": 1895
        }
      ]
    }
  }
}