{
  "_format": "hh-sol-artifact-1",
  "contractName": "Semaphore",
  "sourceName": "contracts/Semaphore.sol",
  "abi": [
    {
      "inputs": [
        {
          "internalType": "uint8",
          "name": "_treeLevels",
          "type": "uint8"
        },
        {
          "internalType": "uint232",
          "name": "_firstExternalNullifier",
          "type": "uint232"
        }
      ],
      "stateMutability": "nonpayable",
      "type": "constructor"
    },
    {
      "anonymous": false,
      "inputs": [
        {
          "indexed": true,
          "internalType": "uint232",
          "name": "externalNullifier",
          "type": "uint232"
        }
      ],
      "name": "ExternalNullifierAdd",
      "type": "event"
    },
    {
      "anonymous": false,
      "inputs": [
        {
          "indexed": true,
          "internalType": "uint232",
          "name": "externalNullifier",
          "type": "uint232"
        },
        {
          "indexed": true,
          "internalType": "bool",
          "name": "active",
          "type": "bool"
        }
      ],
      "name": "ExternalNullifierChangeStatus",
      "type": "event"
    },
    {
      "anonymous": false,
      "inputs": [
        {
          "indexed": true,
          "internalType": "uint256",
          "name": "leaf",
          "type": "uint256"
        },
        {
          "indexed": true,
          "internalType": "uint256",
          "name": "leafIndex",
          "type": "uint256"
        }
      ],
      "name": "LeafInsertion",
      "type": "event"
    },
    {
      "anonymous": false,
      "inputs": [
        {
          "indexed": true,
          "internalType": "address",
          "name": "previousOwner",
          "type": "address"
        },
        {
          "indexed": true,
          "internalType": "address",
          "name": "newOwner",
          "type": "address"
        }
      ],
      "name": "OwnershipTransferred",
      "type": "event"
    },
    {
      "anonymous": false,
      "inputs": [
        {
          "indexed": true,
          "internalType": "bool",
          "name": "newPermission",
          "type": "bool"
        }
      ],
      "name": "PermissionSet",
      "type": "event"
    },
    {
      "inputs": [],
      "name": "NOTHING_UP_MY_SLEEVE_ZERO",
      "outputs": [
        {
          "internalType": "uint256",
          "name": "",
          "type": "uint256"
        }
      ],
      "stateMutability": "view",
      "type": "function"
    },
    {
      "inputs": [
        {
          "internalType": "uint232",
          "name": "_externalNullifier",
          "type": "uint232"
        }
      ],
      "name": "addExternalNullifier",
      "outputs": [],
      "stateMutability": "nonpayable",
      "type": "function"
    },
    {
      "inputs": [
        {
          "internalType": "bytes",
          "name": "_signal",
          "type": "bytes"
        },
        {
          "internalType": "uint256[8]",
          "name": "_proof",
          "type": "uint256[8]"
        },
        {
          "internalType": "uint256",
          "name": "_root",
          "type": "uint256"
        },
        {
          "internalType": "uint256",
          "name": "_nullifiersHash",
          "type": "uint256"
        },
        {
          "internalType": "uint232",
          "name": "_externalNullifier",
          "type": "uint232"
        }
      ],
      "name": "broadcastSignal",
      "outputs": [],
      "stateMutability": "nonpayable",
      "type": "function"
    },
    {
      "inputs": [
        {
          "internalType": "uint232",
          "name": "_externalNullifier",
          "type": "uint232"
        }
      ],
      "name": "deactivateExternalNullifier",
      "outputs": [],
      "stateMutability": "nonpayable",
      "type": "function"
    },
    {
      "inputs": [
        {
          "internalType": "uint232",
          "name": "",
          "type": "uint232"
        }
      ],
      "name": "externalNullifierLinkedList",
      "outputs": [
        {
          "internalType": "uint232",
          "name": "next",
          "type": "uint232"
        },
        {
          "internalType": "bool",
          "name": "exists",
          "type": "bool"
        },
        {
          "internalType": "bool",
          "name": "isActive",
          "type": "bool"
        }
      ],
      "stateMutability": "view",
      "type": "function"
    },
    {
      "inputs": [],
      "name": "firstExternalNullifier",
      "outputs": [
        {
          "internalType": "uint232",
          "name": "",
          "type": "uint232"
        }
      ],
      "stateMutability": "view",
      "type": "function"
    },
    {
      "inputs": [
        {
          "internalType": "uint232",
          "name": "_externalNullifier",
          "type": "uint232"
        }
      ],
      "name": "getNextExternalNullifier",
      "outputs": [
        {
          "internalType": "uint232",
          "name": "",
          "type": "uint232"
        }
      ],
      "stateMutability": "view",
      "type": "function"
    },
    {
      "inputs": [],
      "name": "getNumIdentityCommitments",
      "outputs": [
        {
          "internalType": "uint256",
          "name": "",
          "type": "uint256"
        }
      ],
      "stateMutability": "view",
      "type": "function"
    },
    {
      "inputs": [
        {
          "internalType": "uint256[]",
          "name": "array",
          "type": "uint256[]"
        }
      ],
      "name": "hash11",
      "outputs": [
        {
          "internalType": "uint256",
          "name": "",
          "type": "uint256"
        }
      ],
      "stateMutability": "pure",
      "type": "function"
    },
    {
      "inputs": [
        {
          "internalType": "uint256[5]",
          "name": "array",
          "type": "uint256[5]"
        }
      ],
      "name": "hash5",
      "outputs": [
        {
          "internalType": "uint256",
          "name": "",
          "type": "uint256"
        }
      ],
      "stateMutability": "pure",
      "type": "function"
    },
    {
      "inputs": [
        {
          "internalType": "uint256",
          "name": "_left",
          "type": "uint256"
        },
        {
          "internalType": "uint256",
          "name": "_right",
          "type": "uint256"
        }
      ],
      "name": "hashLeftRight",
      "outputs": [
        {
          "internalType": "uint256",
          "name": "",
          "type": "uint256"
        }
      ],
      "stateMutability": "pure",
      "type": "function"
    },
    {
      "inputs": [
        {
          "internalType": "uint256",
          "name": "_identityCommitment",
          "type": "uint256"
        }
      ],
      "name": "insertIdentity",
      "outputs": [
        {
          "internalType": "uint256",
          "name": "",
          "type": "uint256"
        }
      ],
      "stateMutability": "nonpayable",
      "type": "function"
    },
    {
      "inputs": [
        {
          "internalType": "uint256",
          "name": "_leaf",
          "type": "uint256"
        }
      ],
      "name": "insertLeaf",
      "outputs": [
        {
          "internalType": "uint256",
          "name": "",
          "type": "uint256"
        }
      ],
      "stateMutability": "nonpayable",
      "type": "function"
    },
    {
      "inputs": [],
      "name": "isBroadcastPermissioned",
      "outputs": [
        {
          "internalType": "bool",
          "name": "",
          "type": "bool"
        }
      ],
      "stateMutability": "view",
      "type": "function"
    },
    {
      "inputs": [
        {
          "internalType": "uint232",
          "name": "_externalNullifier",
          "type": "uint232"
        }
      ],
      "name": "isExternalNullifierActive",
      "outputs": [
        {
          "internalType": "bool",
          "name": "",
          "type": "bool"
        }
      ],
      "stateMutability": "view",
      "type": "function"
    },
    {
      "inputs": [],
      "name": "isOwner",
      "outputs": [
        {
          "internalType": "bool",
          "name": "",
          "type": "bool"
        }
      ],
      "stateMutability": "view",
      "type": "function"
    },
    {
      "inputs": [],
      "name": "lastExternalNullifier",
      "outputs": [
        {
          "internalType": "uint232",
          "name": "",
          "type": "uint232"
        }
      ],
      "stateMutability": "view",
      "type": "function"
    },
    {
      "inputs": [
        {
          "internalType": "uint256",
          "name": "",
          "type": "uint256"
        }
      ],
      "name": "nullifierHashHistory",
      "outputs": [
        {
          "internalType": "bool",
          "name": "",
          "type": "bool"
        }
      ],
      "stateMutability": "view",
      "type": "function"
    },
    {
      "inputs": [],
      "name": "numExternalNullifiers",
      "outputs": [
        {
          "internalType": "uint256",
          "name": "",
          "type": "uint256"
        }
      ],
      "stateMutability": "view",
      "type": "function"
    },
    {
      "inputs": [],
      "name": "owner",
      "outputs": [
        {
          "internalType": "address",
          "name": "",
          "type": "address"
        }
      ],
      "stateMutability": "view",
      "type": "function"
    },
    {
      "inputs": [
        {
          "internalType": "uint256[2]",
          "name": "_a",
          "type": "uint256[2]"
        },
        {
          "internalType": "uint256[2][2]",
          "name": "_b",
          "type": "uint256[2][2]"
        },
        {
          "internalType": "uint256[2]",
          "name": "_c",
          "type": "uint256[2]"
        }
      ],
      "name": "packProof",
      "outputs": [
        {
          "internalType": "uint256[8]",
          "name": "",
          "type": "uint256[8]"
        }
      ],
      "stateMutability": "pure",
      "type": "function"
    },
    {
      "inputs": [
        {
          "internalType": "bytes",
          "name": "_signal",
          "type": "bytes"
        },
        {
          "internalType": "uint256[8]",
          "name": "_proof",
          "type": "uint256[8]"
        },
        {
          "internalType": "uint256",
          "name": "_root",
          "type": "uint256"
        },
        {
          "internalType": "uint256",
          "name": "_nullifiersHash",
          "type": "uint256"
        },
        {
          "internalType": "uint256",
          "name": "_signalHash",
          "type": "uint256"
        },
        {
          "internalType": "uint232",
          "name": "_externalNullifier",
          "type": "uint232"
        }
      ],
      "name": "preBroadcastCheck",
      "outputs": [
        {
          "internalType": "bool",
          "name": "",
          "type": "bool"
        }
      ],
      "stateMutability": "view",
      "type": "function"
    },
    {
      "inputs": [
        {
          "internalType": "uint232",
          "name": "_externalNullifier",
          "type": "uint232"
        }
      ],
      "name": "reactivateExternalNullifier",
      "outputs": [],
      "stateMutability": "nonpayable",
      "type": "function"
    },
    {
      "inputs": [],
      "name": "renounceOwnership",
      "outputs": [],
      "stateMutability": "nonpayable",
      "type": "function"
    },
    {
      "inputs": [],
      "name": "root",
      "outputs": [
        {
          "internalType": "uint256",
          "name": "",
          "type": "uint256"
        }
      ],
      "stateMutability": "view",
      "type": "function"
    },
    {
      "inputs": [
        {
          "internalType": "uint256",
          "name": "",
          "type": "uint256"
        }
      ],
      "name": "rootHistory",
      "outputs": [
        {
          "internalType": "bool",
          "name": "",
          "type": "bool"
        }
      ],
      "stateMutability": "view",
      "type": "function"
    },
    {
      "inputs": [
        {
          "internalType": "bool",
          "name": "_newPermission",
          "type": "bool"
        }
      ],
      "name": "setPermissioning",
      "outputs": [],
      "stateMutability": "nonpayable",
      "type": "function"
    },
    {
      "inputs": [
        {
          "internalType": "address",
          "name": "newOwner",
          "type": "address"
        }
      ],
      "name": "transferOwnership",
      "outputs": [],
      "stateMutability": "nonpayable",
      "type": "function"
    },
    {
      "inputs": [
        {
          "internalType": "uint256[8]",
          "name": "_proof",
          "type": "uint256[8]"
        }
      ],
      "name": "unpackProof",
      "outputs": [
        {
          "internalType": "uint256[2]",
          "name": "",
          "type": "uint256[2]"
        },
        {
          "internalType": "uint256[2][2]",
          "name": "",
          "type": "uint256[2][2]"
        },
        {
          "internalType": "uint256[2]",
          "name": "",
          "type": "uint256[2]"
        }
      ],
      "stateMutability": "pure",
      "type": "function"
    },
    {
      "inputs": [
        {
          "internalType": "uint256[2]",
          "name": "a",
          "type": "uint256[2]"
        },
        {
          "internalType": "uint256[2][2]",
          "name": "b",
          "type": "uint256[2][2]"
        },
        {
          "internalType": "uint256[2]",
          "name": "c",
          "type": "uint256[2]"
        },
        {
          "internalType": "uint256[4]",
          "name": "input",
          "type": "uint256[4]"
        }
      ],
      "name": "verifyProof",
      "outputs": [
        {
          "internalType": "bool",
          "name": "r",
          "type": "bool"
        }
      ],
      "stateMutability": "view",
      "type": "function"
    }
  ],
  "bytecode": "0x6080604052600060015560006007556000600860006101000a8154817cffffffffffffffffffffffffffffffffffffffffffffffffffffffffff02191690837cffffffffffffffffffffffffffffffffffffffffffffffffffffffffff1602179055506000600960006101000a8154817cffffffffffffffffffffffffffffffffffffffffffffffffffffffffff02191690837cffffffffffffffffffffffffffffffffffffffffffffffffffffffffff16021790555060016009601d6101000a81548160ff0219169083151502179055507f30644e72e131a029b85045b68181585d2833e84879b9709143e1f593f0000001604051602001620001039062000a18565b6040516020818303038152906040528051906020012060001c62000128919062000b96565b600b553480156200013857600080fd5b506040516200789e3803806200789e83398181016040528101906200015e9190620008d4565b81600b54336000806101000a81548173ffffffffffffffffffffffffffffffffffffffff021916908373ffffffffffffffffffffffffffffffffffffffff16021790555060008054906101000a900473ffffffffffffffffffffffffffffffffffffffff1673ffffffffffffffffffffffffffffffffffffffff16600073ffffffffffffffffffffffffffffffffffffffff167f8be0079c531659141344cd1fd0a4f28419497f9722a3daafe3b4186f6b6457e060405160405180910390a360008260ff16118015620002385750602060ff168260ff1611155b6200027a576040517f08c379a0000000000000000000000000000000000000000000000000000000008152600401620002719062000a4c565b60405180910390fd5b81600060146101000a81548160ff021916908360ff1602179055506000819050620002a462000841565b60005b8460ff168160ff1610156200036b5760005b600560ff168160ff161015620003265783838260ff166005811062000307577f4e487b7100000000000000000000000000000000000000000000000000000000600052603260045260246000fd5b60200201818152505080806200031d9062000b67565b915050620002b9565b5082600360008360ff1681526020019081526020016000208190555062000353826200039260201b60201c565b92508080620003629062000b67565b915050620002a7565b5081600281905550505050506200038a8160016200042860201b60201c565b505062000d41565b600073__$223301b175b06473d424a7afc957d4e96c$__634937a258836040518263ffffffff1660e01b8152600401620003cd919062000a2f565b60206040518083038186803b158015620003e657600080fd5b505af4158015620003fb573d6000803e3d6000fd5b505050506040513d601f19601f82011682018060405250810190620004219190620008a8565b9050919050565b8015620004885781600860006101000a8154817cffffffffffffffffffffffffffffffffffffffffffffffffffffffffff02191690837cffffffffffffffffffffffffffffffffffffffffffffffffffffffffff16021790555062000604565b6000151560066000847cffffffffffffffffffffffffffffffffffffffffffffffffffffffffff167cffffffffffffffffffffffffffffffffffffffffffffffffffffffffff168152602001908152602001600020600001601d9054906101000a900460ff1615151462000533576040517f08c379a00000000000000000000000000000000000000000000000000000000081526004016200052a9062000a6e565b60405180910390fd5b8160066000600960009054906101000a90047cffffffffffffffffffffffffffffffffffffffffffffffffffffffffff167cffffffffffffffffffffffffffffffffffffffffffffffffffffffffff167cffffffffffffffffffffffffffffffffffffffffffffffffffffffffff16815260200190815260200160002060000160006101000a8154817cffffffffffffffffffffffffffffffffffffffffffffffffffffffffff02191690837cffffffffffffffffffffffffffffffffffffffffffffffffffffffffff1602179055505b600060066000847cffffffffffffffffffffffffffffffffffffffffffffffffffffffffff167cffffffffffffffffffffffffffffffffffffffffffffffffffffffffff16815260200190815260200160002060000160006101000a8154817cffffffffffffffffffffffffffffffffffffffffffffffffffffffffff02191690837cffffffffffffffffffffffffffffffffffffffffffffffffffffffffff160217905550600160066000847cffffffffffffffffffffffffffffffffffffffffffffffffffffffffff167cffffffffffffffffffffffffffffffffffffffffffffffffffffffffff168152602001908152602001600020600001601e6101000a81548160ff021916908315150217905550600160066000847cffffffffffffffffffffffffffffffffffffffffffffffffffffffffff167cffffffffffffffffffffffffffffffffffffffffffffffffffffffffff168152602001908152602001600020600001601d6101000a81548160ff02191690831515021790555081600960006101000a8154817cffffffffffffffffffffffffffffffffffffffffffffffffffffffffff02191690837cffffffffffffffffffffffffffffffffffffffffffffffffffffffffff16021790555060076000815480929190620007ec9062000b19565b9190505550817cffffffffffffffffffffffffffffffffffffffffffffffffffffffffff167fd1ca56647596090d70fa8d49bcc376b97248314e3f204c491333b3440405f58960405160405180910390a25050565b6040518060a00160405280600590602082028036833780820191505090505090565b600081519050620008748162000cf3565b92915050565b6000815190506200088b8162000d0d565b92915050565b600081519050620008a28162000d27565b92915050565b600060208284031215620008bb57600080fd5b6000620008cb848285016200087a565b91505092915050565b60008060408385031215620008e857600080fd5b6000620008f88582860162000891565b92505060206200090b8582860162000863565b9150509250929050565b600062000923838362000a07565b60208301905092915050565b6200093a8162000a9a565b62000946818462000ab2565b9250620009538262000a90565b8060005b838110156200098a5781516200096e878262000915565b96506200097b8362000aa5565b92505060018101905062000957565b505050505050565b6000620009a160398362000abd565b9150620009ae8262000c2c565b604082019050919050565b6000620009c860098362000ace565b9150620009d58262000c7b565b600982019050919050565b6000620009ef60298362000abd565b9150620009fc8262000ca4565b604082019050919050565b62000a128162000b02565b82525050565b600062000a2582620009b9565b9150819050919050565b600060a08201905062000a4660008301846200092f565b92915050565b6000602082019050818103600083015262000a678162000992565b9050919050565b6000602082019050818103600083015262000a8981620009e0565b9050919050565b6000819050919050565b600060059050919050565b6000602082019050919050565b600081905092915050565b600082825260208201905092915050565b600081905092915050565b60007cffffffffffffffffffffffffffffffffffffffffffffffffffffffffff82169050919050565b6000819050919050565b600060ff82169050919050565b600062000b268262000b02565b91507fffffffffffffffffffffffffffffffffffffffffffffffffffffffffffffffff82141562000b5c5762000b5b62000bce565b5b600182019050919050565b600062000b748262000b0c565b915060ff82141562000b8b5762000b8a62000bce565b5b600182019050919050565b600062000ba38262000b02565b915062000bb08362000b02565b92508262000bc35762000bc262000bfd565b5b828206905092915050565b7f4e487b7100000000000000000000000000000000000000000000000000000000600052601160045260246000fd5b7f4e487b7100000000000000000000000000000000000000000000000000000000600052601260045260246000fd5b7f496e6372656d656e74616c5175696e547265653a205f747265654c6576656c7360008201527f206d757374206265206265747765656e203020616e6420333300000000000000602082015250565b7f53656d6170686f72650000000000000000000000000000000000000000000000600082015250565b7f53656d6170686f72653a2065787465726e616c206e756c6c696669657220616c60008201527f7265616479207365740000000000000000000000000000000000000000000000602082015250565b62000cfe8162000ad9565b811462000d0a57600080fd5b50565b62000d188162000b02565b811462000d2457600080fd5b50565b62000d328162000b0c565b811462000d3e57600080fd5b50565b616b4d8062000d516000396000f3fe608060405234801561001057600080fd5b50600436106101da5760003560e01c80638da5cb5b11610104578063c4cd5596116100a2578063ebf0c71711610071578063ebf0c717146105a7578063f1c621ee146105c5578063f2fde38b146105f5578063f5ab0dd614610611576101da565b8063c4cd55961461050d578063c8cf02da1461053d578063ce85bbdb1461055b578063eac4287e14610577576101da565b80639cfced97116100de5780639cfced971461045f578063b72024341461048f578063ba10b81d146104bf578063c3a3407f146104dd576101da565b80638da5cb5b146104055780638f32d59b146104235780638f6efd0014610441576101da565b80635e05ea171161017c578063715018a61161014b578063715018a61461037d5780637a5519f914610387578063819bd8a5146103b95780638a1a52d2146103d5576101da565b80635e05ea17146102cf5780635fe8c13b146102ff5780636d80efca1461032f5780636ebf62651461035f576101da565b8063539f38b2116101b8578063539f38b2146102355780635bb93995146102515780635d3ce725146102815780635d86faba146102b1576101da565b80630e57596f146101df57806323baaa83146101fb578063283ebaf414610217575b600080fd5b6101f960048036038101906101f49190615230565b610643565b005b61021560048036038101906102109190615369565b61094d565b005b61021f610b9d565b60405161022c9190615a96565b60405180910390f35b61024f600480360381019061024a9190615369565b610bb0565b005b61026b600480360381019061026691906153e4565b610c05565b6040516102789190615de3565b60405180910390f35b61029b600480360381019061029691906152c3565b610d27565b6040516102a89190615a96565b60405180910390f35b6102b9610e93565b6040516102c69190615d91565b60405180910390f35b6102e960048036038101906102e491906150be565b610ec2565b6040516102f69190615a7a565b60405180910390f35b6103196004803603810190610314919061510e565b6111f5565b6040516103269190615a96565b60405180910390f35b61034960048036038101906103449190615392565b6116a9565b6040516103569190615de3565b60405180910390f35b610367611747565b6040516103749190615de3565b60405180910390f35b61038561174d565b005b6103a1600480360381019061039c9190615369565b611852565b6040516103b093929190615dac565b60405180910390f35b6103d360048036038101906103ce9190615369565b6118bf565b005b6103ef60048036038101906103ea91906151c6565b611b0f565b6040516103fc9190615de3565b60405180910390f35b61040d61215d565b60405161041a91906159f1565b60405180910390f35b61042b612186565b6040516104389190615a96565b60405180910390f35b6104496121dd565b6040516104569190615de3565b60405180910390f35b61047960048036038101906104749190615173565b6121e3565b6040516104869190615de3565b60405180910390f35b6104a960048036038101906104a49190615392565b612273565b6040516104b69190615de3565b60405180910390f35b6104c76125d9565b6040516104d49190615de3565b60405180910390f35b6104f760048036038101906104f29190615369565b6125e3565b6040516105049190615d91565b60405180910390f35b61052760048036038101906105229190615392565b6127c0565b6040516105349190615a96565b60405180910390f35b6105456127e0565b6040516105529190615d91565b60405180910390f35b61057560048036038101906105709190615207565b61280f565b005b610591600480360381019061058c9190615369565b6128a2565b60405161059e9190615a96565b60405180910390f35b6105af61290d565b6040516105bc9190615de3565b60405180910390f35b6105df60048036038101906105da9190615392565b612913565b6040516105ec9190615a96565b60405180910390f35b61060f600480360381019061060a9190615095565b612933565b005b61062b6004803603810190610626919061519c565b612986565b60405161063a93929190615a27565b60405180910390f35b6009601d9054906101000a900460ff1615806106635750610662612186565b5b6106a2576040517f08c379a000000000000000000000000000000000000000000000000000000000815260040161069990615c51565b60405180910390fd5b84848484846106b084612c02565b6106ef576040517f08c379a00000000000000000000000000000000000000000000000000000000081526004016106e690615c71565b60405180910390fd5b60001515600a600084815260200190815260200160002060009054906101000a900460ff16151514610756576040517f08c379a000000000000000000000000000000000000000000000000000000000815260040161074d90615c91565b60405180910390fd5b61075f816128a2565b61079e576040517f08c379a000000000000000000000000000000000000000000000000000000000815260040161079590615cb1565b60405180910390fd5b6005600084815260200190815260200160002060009054906101000a900460ff166107fe576040517f08c379a00000000000000000000000000000000000000000000000000000000081526004016107f590615b31565b60405180910390fd5b600061080986612f4b565b90507f30644e72e131a029b85045b68181585d2833e84879b9709143e1f593f0000001831061086d576040517f08c379a000000000000000000000000000000000000000000000000000000000815260040161086490615cd1565b60405180910390fd5b60006040518060800160405280868152602001858152602001838152602001847cffffffffffffffffffffffffffffffffffffffffffffffffffffffffff16815250905060008060006108bf89612986565b9250925092506108d1838383876111f5565b610910576040517f08c379a000000000000000000000000000000000000000000000000000000000815260040161090790615af1565b60405180910390fd5b6001600a60008e815260200190815260200160002060006101000a81548160ff021916908315150217905550505050505050505050505050505050565b610955612186565b610994576040517f08c379a000000000000000000000000000000000000000000000000000000000815260040161098b90615c31565b60405180910390fd5b60066000827cffffffffffffffffffffffffffffffffffffffffffffffffffffffffff167cffffffffffffffffffffffffffffffffffffffffffffffffffffffffff168152602001908152602001600020600001601d9054906101000a900460ff16610a35576040517f08c379a0000000000000000000000000000000000000000000000000000000008152600401610a2c90615cb1565b60405180910390fd5b6001151560066000837cffffffffffffffffffffffffffffffffffffffffffffffffffffffffff167cffffffffffffffffffffffffffffffffffffffffffffffffffffffffff168152602001908152602001600020600001601e9054906101000a900460ff16151514610add576040517f08c379a0000000000000000000000000000000000000000000000000000000008152600401610ad490615bb1565b60405180910390fd5b600060066000837cffffffffffffffffffffffffffffffffffffffffffffffffffffffffff167cffffffffffffffffffffffffffffffffffffffffffffffffffffffffff168152602001908152602001600020600001601e6101000a81548160ff02191690831515021790555060001515817cffffffffffffffffffffffffffffffffffffffffffffffffffffffffff167fb8d2b8a2b352df7f139810483b3c80fc3a4a88711c90bdb7180f1030b7f49acf60405160405180910390a350565b6009601d9054906101000a900460ff1681565b610bb8612186565b610bf7576040517f08c379a0000000000000000000000000000000000000000000000000000000008152600401610bee90615c31565b60405180910390fd5b610c02816000612f63565b50565b6000610c0f614ac8565b8381600060028110610c4a577f4e487b7100000000000000000000000000000000000000000000000000000000600052603260045260246000fd5b6020020181815250508281600160028110610c8e577f4e487b7100000000000000000000000000000000000000000000000000000000600052603260045260246000fd5b60200201818152505073__$86e0c54df1042e28bf2dd20ccf184dc428$__6329a5f2f6826040518263ffffffff1660e01b8152600401610cce9190615a0c565b60206040518083038186803b158015610ce657600080fd5b505af4158015610cfa573d6000803e3d6000fd5b505050506040513d601f19601f82011682018060405250810190610d1e91906153bb565b91505092915050565b6000806040518060800160405280878152602001868152602001858152602001847cffffffffffffffffffffffffffffffffffffffffffffffffffffffffff1681525090506000806000610d7a8a612986565b92509250925060001515600a60008a815260200190815260200160002060009054906101000a900460ff161515148015610dbb575086610db98c612f4b565b145b8015610dce5750610dcb8b612f4b565b87145b8015610ddf5750610dde866128a2565b5b8015610e085750600560008a815260200190815260200160002060009054906101000a900460ff165b8015610e195750610e188a612c02565b5b8015610e4457507f30644e72e131a029b85045b68181585d2833e84879b9709143e1f593f000000189105b8015610e6f57507f30644e72e131a029b85045b68181585d2833e84879b9709143e1f593f000000188105b8015610e835750610e82838383876111f5565b5b9450505050509695505050505050565b600860009054906101000a90047cffffffffffffffffffffffffffffffffffffffffffffffffffffffffff1681565b610eca614aea565b60405180610100016040528085600060028110610f10577f4e487b7100000000000000000000000000000000000000000000000000000000600052603260045260246000fd5b6020020151815260200185600160028110610f54577f4e487b7100000000000000000000000000000000000000000000000000000000600052603260045260246000fd5b6020020151815260200184600060028110610f98577f4e487b7100000000000000000000000000000000000000000000000000000000600052603260045260246000fd5b6020020151600060028110610fd6577f4e487b7100000000000000000000000000000000000000000000000000000000600052603260045260246000fd5b602002015181526020018460006002811061101a577f4e487b7100000000000000000000000000000000000000000000000000000000600052603260045260246000fd5b6020020151600160028110611058577f4e487b7100000000000000000000000000000000000000000000000000000000600052603260045260246000fd5b602002015181526020018460016002811061109c577f4e487b7100000000000000000000000000000000000000000000000000000000600052603260045260246000fd5b60200201516000600281106110da577f4e487b7100000000000000000000000000000000000000000000000000000000600052603260045260246000fd5b602002015181526020018460016002811061111e577f4e487b7100000000000000000000000000000000000000000000000000000000600052603260045260246000fd5b602002015160016002811061115c577f4e487b7100000000000000000000000000000000000000000000000000000000600052603260045260246000fd5b60200201518152602001836000600281106111a0577f4e487b7100000000000000000000000000000000000000000000000000000000600052603260045260246000fd5b60200201518152602001836001600281106111e4577f4e487b7100000000000000000000000000000000000000000000000000000000600052603260045260246000fd5b602002015181525090509392505050565b60006111ff614b0d565b604051806040016040528087600060028110611244577f4e487b7100000000000000000000000000000000000000000000000000000000600052603260045260246000fd5b6020020151815260200187600160028110611288577f4e487b7100000000000000000000000000000000000000000000000000000000600052603260045260246000fd5b6020020151815250816000018190525060405180604001604052806040518060400160405280886000600281106112e8577f4e487b7100000000000000000000000000000000000000000000000000000000600052603260045260246000fd5b6020020151600060028110611326577f4e487b7100000000000000000000000000000000000000000000000000000000600052603260045260246000fd5b602002015181526020018860006002811061136a577f4e487b7100000000000000000000000000000000000000000000000000000000600052603260045260246000fd5b60200201516001600281106113a8577f4e487b7100000000000000000000000000000000000000000000000000000000600052603260045260246000fd5b602002015181525081526020016040518060400160405280886001600281106113fa577f4e487b7100000000000000000000000000000000000000000000000000000000600052603260045260246000fd5b6020020151600060028110611438577f4e487b7100000000000000000000000000000000000000000000000000000000600052603260045260246000fd5b602002015181526020018860016002811061147c577f4e487b7100000000000000000000000000000000000000000000000000000000600052603260045260246000fd5b60200201516001600281106114ba577f4e487b7100000000000000000000000000000000000000000000000000000000600052603260045260246000fd5b60200201518152508152508160200181905250604051806040016040528085600060028110611512577f4e487b7100000000000000000000000000000000000000000000000000000000600052603260045260246000fd5b6020020151815260200185600160028110611556577f4e487b7100000000000000000000000000000000000000000000000000000000600052603260045260246000fd5b602002015181525081604001819052506000600467ffffffffffffffff8111156115a9577f4e487b7100000000000000000000000000000000000000000000000000000000600052604160045260246000fd5b6040519080825280602002602001820160405280156115d75781602001602082028036833780820191505090505b50905060005b600481101561167c5784816004811061161f577f4e487b7100000000000000000000000000000000000000000000000000000000600052603260045260246000fd5b602002015182828151811061165d577f4e487b7100000000000000000000000000000000000000000000000000000000600052603260045260246000fd5b60200260200101818152505080806116749061635d565b9150506115dd565b5060006116898284613375565b141561169a576001925050506116a1565b6000925050505b949350505050565b60006116b3612186565b6116f2576040517f08c379a00000000000000000000000000000000000000000000000000000000081526004016116e990615c31565b60405180910390fd5b600b54821415611737576040517f08c379a000000000000000000000000000000000000000000000000000000000815260040161172e90615b11565b60405180910390fd5b61174082612273565b9050919050565b600b5481565b611755612186565b611794576040517f08c379a000000000000000000000000000000000000000000000000000000000815260040161178b90615c31565b60405180910390fd5b600073ffffffffffffffffffffffffffffffffffffffff1660008054906101000a900473ffffffffffffffffffffffffffffffffffffffff1673ffffffffffffffffffffffffffffffffffffffff167f8be0079c531659141344cd1fd0a4f28419497f9722a3daafe3b4186f6b6457e060405160405180910390a360008060006101000a81548173ffffffffffffffffffffffffffffffffffffffff021916908373ffffffffffffffffffffffffffffffffffffffff160217905550565b60066020528060005260406000206000915090508060000160009054906101000a90047cffffffffffffffffffffffffffffffffffffffffffffffffffffffffff169080600001601d9054906101000a900460ff169080600001601e9054906101000a900460ff16905083565b6118c7612186565b611906576040517f08c379a00000000000000000000000000000000000000000000000000000000081526004016118fd90615c31565b60405180910390fd5b60066000827cffffffffffffffffffffffffffffffffffffffffffffffffffffffffff167cffffffffffffffffffffffffffffffffffffffffffffffffffffffffff168152602001908152602001600020600001601d9054906101000a900460ff166119a7576040517f08c379a000000000000000000000000000000000000000000000000000000000815260040161199e90615cb1565b60405180910390fd5b6000151560066000837cffffffffffffffffffffffffffffffffffffffffffffffffffffffffff167cffffffffffffffffffffffffffffffffffffffffffffffffffffffffff168152602001908152602001600020600001601e9054906101000a900460ff16151514611a4f576040517f08c379a0000000000000000000000000000000000000000000000000000000008152600401611a4690615ab1565b60405180910390fd5b600160066000837cffffffffffffffffffffffffffffffffffffffffffffffffffffffffff167cffffffffffffffffffffffffffffffffffffffffffffffffffffffffff168152602001908152602001600020600001601e6101000a81548160ff02191690831515021790555060011515817cffffffffffffffffffffffffffffffffffffffffffffffffffffffffff167fb8d2b8a2b352df7f139810483b3c80fc3a4a88711c90bdb7180f1030b7f49acf60405160405180910390a350565b600080600b67ffffffffffffffff811115611b53577f4e487b7100000000000000000000000000000000000000000000000000000000600052604160045260246000fd5b604051908082528060200260200182016040528015611b815781602001602082028036833780820191505090505b509050611b8c614b40565b611b94614b40565b60005b8551811015611c3957858181518110611bd9577f4e487b7100000000000000000000000000000000000000000000000000000000600052603260045260246000fd5b6020026020010151848281518110611c1a577f4e487b7100000000000000000000000000000000000000000000000000000000600052603260045260246000fd5b6020026020010181815250508080611c319061635d565b915050611b97565b506000855190505b600b811015611ca4576000848281518110611c85577f4e487b7100000000000000000000000000000000000000000000000000000000600052603260045260246000fd5b6020026020010181815250508080611c9c9061635d565b915050611c41565b5060005b6005811015611dd657838181518110611cea577f4e487b7100000000000000000000000000000000000000000000000000000000600052603260045260246000fd5b6020026020010151838260058110611d2b577f4e487b7100000000000000000000000000000000000000000000000000000000600052603260045260246000fd5b60200201818152505083600582611d429190616019565b81518110611d79577f4e487b7100000000000000000000000000000000000000000000000000000000600052603260045260246000fd5b6020026020010151828260058110611dba577f4e487b7100000000000000000000000000000000000000000000000000000000600052603260045260246000fd5b6020020181815250508080611dce9061635d565b915050611ca8565b50611ddf614ac8565b73__$223301b175b06473d424a7afc957d4e96c$__634937a258846040518263ffffffff1660e01b8152600401611e169190615a5f565b60206040518083038186803b158015611e2e57600080fd5b505af4158015611e42573d6000803e3d6000fd5b505050506040513d601f19601f82011682018060405250810190611e6691906153bb565b81600060028110611ea0577f4e487b7100000000000000000000000000000000000000000000000000000000600052603260045260246000fd5b60200201818152505073__$223301b175b06473d424a7afc957d4e96c$__634937a258836040518263ffffffff1660e01b8152600401611ee09190615a5f565b60206040518083038186803b158015611ef857600080fd5b505af4158015611f0c573d6000803e3d6000fd5b505050506040513d601f19601f82011682018060405250810190611f3091906153bb565b81600160028110611f6a577f4e487b7100000000000000000000000000000000000000000000000000000000600052603260045260246000fd5b602002018181525050611f7b614ac8565b73__$86e0c54df1042e28bf2dd20ccf184dc428$__6329a5f2f6836040518263ffffffff1660e01b8152600401611fb29190615a0c565b60206040518083038186803b158015611fca57600080fd5b505af4158015611fde573d6000803e3d6000fd5b505050506040513d601f19601f8201168201806040525081019061200291906153bb565b8160006002811061203c577f4e487b7100000000000000000000000000000000000000000000000000000000600052603260045260246000fd5b60200201818152505084600a8151811061207f577f4e487b7100000000000000000000000000000000000000000000000000000000600052603260045260246000fd5b6020026020010151816001600281106120c1577f4e487b7100000000000000000000000000000000000000000000000000000000600052603260045260246000fd5b60200201818152505073__$86e0c54df1042e28bf2dd20ccf184dc428$__6329a5f2f6826040518263ffffffff1660e01b81526004016121019190615a0c565b60206040518083038186803b15801561211957600080fd5b505af415801561212d573d6000803e3d6000fd5b505050506040513d601f19601f8201168201806040525081019061215191906153bb565b95505050505050919050565b60008060009054906101000a900473ffffffffffffffffffffffffffffffffffffffff16905090565b60008060009054906101000a900473ffffffffffffffffffffffffffffffffffffffff1673ffffffffffffffffffffffffffffffffffffffff163373ffffffffffffffffffffffffffffffffffffffff1614905090565b60075481565b600073__$223301b175b06473d424a7afc957d4e96c$__634937a258836040518263ffffffff1660e01b815260040161221c9190615a5f565b60206040518083038186803b15801561223457600080fd5b505af4158015612248573d6000803e3d6000fd5b505050506040513d601f19601f8201168201806040525081019061226c91906153bb565b9050919050565b600061227d612186565b6122bc576040517f08c379a00000000000000000000000000000000000000000000000000000000081526004016122b390615c31565b60405180910390fd5b7f30644e72e131a029b85045b68181585d2833e84879b9709143e1f593f0000001821061231e576040517f08c379a000000000000000000000000000000000000000000000000000000000815260040161231590615bd1565b60405180910390fd5b600060149054906101000a900460ff1660ff16600560ff1661234091906160f3565b60015410612383576040517f08c379a000000000000000000000000000000000000000000000000000000000815260040161237a90615d71565b60405180910390fd5b600060015490506000839050612397614b40565b6000600560ff16846123a991906163d0565b905060005b600060149054906101000a900460ff1660ff168160ff161015612548576000821415612444576000600190505b600560ff168160ff16101561244257600360008360ff16815260200190815260200160002054600460008460ff16815260200190815260200160002060008360ff16815260200190815260200160002081905550808061243a906163a6565b9150506123db565b505b83600460008360ff16815260200190815260200160002060008481526020019081526020016000208190555060005b600560ff168160ff16101561250557600460008360ff16815260200190815260200160002060008260ff16815260200190815260200160002054848260ff16600581106124e9577f4e487b7100000000000000000000000000000000000000000000000000000000600052603260045260246000fd5b60200201818152505080806124fd906163a6565b915050612473565b5061250f836121e3565b9350600560ff1685612521919061606f565b9450600560ff168561253391906163d0565b91508080612540906163a6565b9150506123ae565b5082600281905550600160056000600254815260200190815260200160002060006101000a81548160ff0219169083151502179055506000600154905060018060008282546125979190616019565b9250508190555080877fe6f49fa84abd31919f446b22a52bb3ceae774b4b87f062f022fec45c46f4f45860405160405180910390a38495505050505050919050565b6000600154905090565b600060066000837cffffffffffffffffffffffffffffffffffffffffffffffffffffffffff167cffffffffffffffffffffffffffffffffffffffffffffffffffffffffff168152602001908152602001600020600001601d9054906101000a900460ff16612686576040517f08c379a000000000000000000000000000000000000000000000000000000000815260040161267d90615b71565b60405180910390fd5b600060066000847cffffffffffffffffffffffffffffffffffffffffffffffffffffffffff167cffffffffffffffffffffffffffffffffffffffffffffffffffffffffff16815260200190815260200160002060000160009054906101000a90047cffffffffffffffffffffffffffffffffffffffffffffffffffffffffff1690506001600754118015612778575060066000827cffffffffffffffffffffffffffffffffffffffffffffffffffffffffff167cffffffffffffffffffffffffffffffffffffffffffffffffffffffffff168152602001908152602001600020600001601d9054906101000a900460ff165b6127b7576040517f08c379a00000000000000000000000000000000000000000000000000000000081526004016127ae90615d31565b60405180910390fd5b80915050919050565b600a6020528060005260406000206000915054906101000a900460ff1681565b600960009054906101000a90047cffffffffffffffffffffffffffffffffffffffffffffffffffffffffff1681565b612817612186565b612856576040517f08c379a000000000000000000000000000000000000000000000000000000000815260040161284d90615c31565b60405180910390fd5b806009601d6101000a81548160ff0219169083151502179055508015157ffba91b9002bc7732a7bff1b44ee16a30ebaeb06d7921779034c6a6ab27e69c2760405160405180910390a250565b600060066000837cffffffffffffffffffffffffffffffffffffffffffffffffffffffffff167cffffffffffffffffffffffffffffffffffffffffffffffffffffffffff168152602001908152602001600020600001601e9054906101000a900460ff169050919050565b60025481565b60056020528060005260406000206000915054906101000a900460ff1681565b61293b612186565b61297a576040517f08c379a000000000000000000000000000000000000000000000000000000000815260040161297190615c31565b60405180910390fd5b61298381613600565b50565b61298e614ac8565b612996614b62565b61299e614ac8565b6040518060400160405280856000600881106129e3577f4e487b7100000000000000000000000000000000000000000000000000000000600052603260045260246000fd5b6020020151815260200185600160088110612a27577f4e487b7100000000000000000000000000000000000000000000000000000000600052603260045260246000fd5b60200201518152506040518060400160405280604051806040016040528088600260088110612a7f577f4e487b7100000000000000000000000000000000000000000000000000000000600052603260045260246000fd5b6020020151815260200188600360088110612ac3577f4e487b7100000000000000000000000000000000000000000000000000000000600052603260045260246000fd5b60200201518152508152602001604051806040016040528088600460088110612b15577f4e487b7100000000000000000000000000000000000000000000000000000000600052603260045260246000fd5b6020020151815260200188600560088110612b59577f4e487b7100000000000000000000000000000000000000000000000000000000600052603260045260246000fd5b6020020151815250815250604051806040016040528087600660088110612ba9577f4e487b7100000000000000000000000000000000000000000000000000000000600052603260045260246000fd5b6020020151815260200187600760088110612bed577f4e487b7100000000000000000000000000000000000000000000000000000000600052603260045260246000fd5b60200201518152509250925092509193909250565b60007f30644e72e131a029b85045b68181585d2833e84879b9709143e1f593f000000182600060088110612c5f577f4e487b7100000000000000000000000000000000000000000000000000000000600052603260045260246000fd5b6020020151108015612cce57507f30644e72e131a029b85045b68181585d2833e84879b9709143e1f593f000000182600160088110612cc7577f4e487b7100000000000000000000000000000000000000000000000000000000600052603260045260246000fd5b6020020151105b8015612d3757507f30644e72e131a029b85045b68181585d2833e84879b9709143e1f593f000000182600260088110612d30577f4e487b7100000000000000000000000000000000000000000000000000000000600052603260045260246000fd5b6020020151105b8015612da057507f30644e72e131a029b85045b68181585d2833e84879b9709143e1f593f000000182600360088110612d99577f4e487b7100000000000000000000000000000000000000000000000000000000600052603260045260246000fd5b6020020151105b8015612e0957507f30644e72e131a029b85045b68181585d2833e84879b9709143e1f593f000000182600460088110612e02577f4e487b7100000000000000000000000000000000000000000000000000000000600052603260045260246000fd5b6020020151105b8015612e7257507f30644e72e131a029b85045b68181585d2833e84879b9709143e1f593f000000182600560088110612e6b577f4e487b7100000000000000000000000000000000000000000000000000000000600052603260045260246000fd5b6020020151105b8015612edb57507f30644e72e131a029b85045b68181585d2833e84879b9709143e1f593f000000182600660088110612ed4577f4e487b7100000000000000000000000000000000000000000000000000000000600052603260045260246000fd5b6020020151105b8015612f4457507f30644e72e131a029b85045b68181585d2833e84879b9709143e1f593f000000182600760088110612f3d577f4e487b7100000000000000000000000000000000000000000000000000000000600052603260045260246000fd5b6020020151105b9050919050565b60006008828051906020012060001c901c9050919050565b8015612fc15781600860006101000a8154817cffffffffffffffffffffffffffffffffffffffffffffffffffffffffff02191690837cffffffffffffffffffffffffffffffffffffffffffffffffffffffffff16021790555061313a565b6000151560066000847cffffffffffffffffffffffffffffffffffffffffffffffffffffffffff167cffffffffffffffffffffffffffffffffffffffffffffffffffffffffff168152602001908152602001600020600001601d9054906101000a900460ff16151514613069576040517f08c379a000000000000000000000000000000000000000000000000000000000815260040161306090615bf1565b60405180910390fd5b8160066000600960009054906101000a90047cffffffffffffffffffffffffffffffffffffffffffffffffffffffffff167cffffffffffffffffffffffffffffffffffffffffffffffffffffffffff167cffffffffffffffffffffffffffffffffffffffffffffffffffffffffff16815260200190815260200160002060000160006101000a8154817cffffffffffffffffffffffffffffffffffffffffffffffffffffffffff02191690837cffffffffffffffffffffffffffffffffffffffffffffffffffffffffff1602179055505b600060066000847cffffffffffffffffffffffffffffffffffffffffffffffffffffffffff167cffffffffffffffffffffffffffffffffffffffffffffffffffffffffff16815260200190815260200160002060000160006101000a8154817cffffffffffffffffffffffffffffffffffffffffffffffffffffffffff02191690837cffffffffffffffffffffffffffffffffffffffffffffffffffffffffff160217905550600160066000847cffffffffffffffffffffffffffffffffffffffffffffffffffffffffff167cffffffffffffffffffffffffffffffffffffffffffffffffffffffffff168152602001908152602001600020600001601e6101000a81548160ff021916908315150217905550600160066000847cffffffffffffffffffffffffffffffffffffffffffffffffffffffffff167cffffffffffffffffffffffffffffffffffffffffffffffffffffffffff168152602001908152602001600020600001601d6101000a81548160ff02191690831515021790555081600960006101000a8154817cffffffffffffffffffffffffffffffffffffffffffffffffffffffffff02191690837cffffffffffffffffffffffffffffffffffffffffffffffffffffffffff160217905550600760008154809291906133209061635d565b9190505550817cffffffffffffffffffffffffffffffffffffffffffffffffffffffffff167fd1ca56647596090d70fa8d49bcc376b97248314e3f204c491333b3440405f58960405160405180910390a25050565b6000807f30644e72e131a029b85045b68181585d2833e84879b9709143e1f593f0000001905060006133a561372d565b9050806080015151600186516133bb9190616019565b146133fb576040517f08c379a00000000000000000000000000000000000000000000000000000000081526004016133f290615b51565b60405180910390fd5b60006040518060400160405280600081526020016000815250905060005b865181101561355c578387828151811061345c577f4e487b7100000000000000000000000000000000000000000000000000000000600052603260045260246000fd5b6020026020010151106134a4576040517f08c379a000000000000000000000000000000000000000000000000000000000815260040161349b90615c11565b60405180910390fd5b6135478261354285608001516001856134bd9190616019565b815181106134f4577f4e487b7100000000000000000000000000000000000000000000000000000000600052603260045260246000fd5b60200260200101518a8581518110613535577f4e487b7100000000000000000000000000000000000000000000000000000000600052603260045260246000fd5b6020026020010151613d7d565b613ecc565b915080806135549061635d565b915050613419565b506135ac81836080015160008151811061359f577f4e487b7100000000000000000000000000000000000000000000000000000000600052603260045260246000fd5b6020026020010151613ecc565b90506135e26135be8660000151614067565b8660200151846000015185602001518587604001518b60400151896060015161410c565b6135f257600193505050506135fa565b600093505050505b92915050565b600073ffffffffffffffffffffffffffffffffffffffff168173ffffffffffffffffffffffffffffffffffffffff161415613670576040517f08c379a000000000000000000000000000000000000000000000000000000000815260040161366790615ad1565b60405180910390fd5b8073ffffffffffffffffffffffffffffffffffffffff1660008054906101000a900473ffffffffffffffffffffffffffffffffffffffff1673ffffffffffffffffffffffffffffffffffffffff167f8be0079c531659141344cd1fd0a4f28419497f9722a3daafe3b4186f6b6457e060405160405180910390a3806000806101000a81548173ffffffffffffffffffffffffffffffffffffffff021916908373ffffffffffffffffffffffffffffffffffffffff16021790555050565b613735614b8f565b60405180604001604052807f2d4d9aa7e302d9df41749d5507949d05dbea33fbb16c643b22f599a2be6df2e281526020017f14bedd503c37ceb061d8ec60209fe345ce89830a19230301f076caff004d19268152508160000181905250604051806040016040528060405180604001604052807f0967032fcbf776d1afc985f88877f182d38480a653f2decaa9794cbc3bf3060c81526020017f0e187847ad4c798374d0d6732bf501847dd68bc0e071241e0213bc7fc13db7ab815250815260200160405180604001604052807f304cfbd1e08a704a99f5e847d93f8c3caafddec46b7a0d379da69a4d112346a781526020017f1739c1b1a457a8c7313123d24d2f9192f896b7c63eea05a9d57f06547ad0cec88152508152508160200181905250604051806040016040528060405180604001604052807f198e9393920d483a7260bfb731fb5d25f1aa493335a9e71297e485b7aef312c281526020017f1800deef121f1e76426a00665e5c4479674322d4f75edadd46debd5cd992f6ed815250815260200160405180604001604052807f090689d0585ff075ec9e99ad690c3395bc4b313370b38ef355acdadcd122975b81526020017f12c85ea5db8c6deb4aab71808dcb408fe3d1e7690c43d37b4ce6cc0166fa7daa8152508152508160400181905250604051806040016040528060405180604001604052807f1bdb443ce61ebcf93daed4215a57e1cec90ca64973023e31197a112e8cee72f681526020017f117e26c4235f42625b3404f2973059814ff260dba7176d7aae910f493a8e1fb5815250815260200160405180604001604052807f196e247a12f580e36894f256f0c122393489b4c213b3e913250feee806ca45ff81526020017f2fedff4e4bbcbf9f1c56e28a060d50eef5f54e2aab897f6b465acd2ed005ae918152508152508160600181905250600567ffffffffffffffff811115613a22577f4e487b7100000000000000000000000000000000000000000000000000000000600052604160045260246000fd5b604051908082528060200260200182016040528015613a5b57816020015b613a48614bd6565b815260200190600190039081613a405790505b50816080018190525060405180604001604052807f0f07e0d71f6e287a9d2409daf4d2c4d3e4c217434dbfedcd7b95e4f14a2a9ce381526020017f1825da28e988768b067722947fedc4f23bbb448a7d524cbbaa9f13cc50c5f16e8152508160800151600081518110613af7577f4e487b7100000000000000000000000000000000000000000000000000000000600052603260045260246000fd5b602002602001018190525060405180604001604052807f1bfec925d9158887f4ffed14fdcba2ea4301febd2b700676ad3f2c35f1dd019081526020017f2e45a0da85d21b50af5e656718d90c46575c2f4967fd77008e47e86e128398a88152508160800151600181518110613b95577f4e487b7100000000000000000000000000000000000000000000000000000000600052603260045260246000fd5b602002602001018190525060405180604001604052807f02df25fc4b8cc3309168bb640889caddbd0230d0d2827a011bfc9a33d31ebc7f81526020017f2df627f9de13cb62a404ba7c28d9a6e5563678661c8f4f56cd6b38a3487a23d98152508160800151600281518110613c33577f4e487b7100000000000000000000000000000000000000000000000000000000600052603260045260246000fd5b602002602001018190525060405180604001604052807f16d601cddbc5bd49c1e4eed5cfb17980a7c7bcd342a7871b4ac1d12f3c6c34be81526020017f033cde6708b92b13702189aa346cd0ff7db9468d22ac204d81068d4712887dc38152508160800151600381518110613cd1577f4e487b7100000000000000000000000000000000000000000000000000000000600052603260045260246000fd5b602002602001018190525060405180604001604052807f1198e1d463542a534d3797ab641f86c3dcd0efd3797a5719a491e60fec3872eb81526020017f2afc8d11c24efc8e11bf7b3e003692455645a3eab2efff3070f10c15bcb07bac8152508160800151600481518110613d6f577f4e487b7100000000000000000000000000000000000000000000000000000000600052603260045260246000fd5b602002602001018190525090565b613d85614bd6565b613d8d614bf0565b836000015181600060038110613dcc577f4e487b7100000000000000000000000000000000000000000000000000000000600052603260045260246000fd5b602002018181525050836020015181600160038110613e14577f4e487b7100000000000000000000000000000000000000000000000000000000600052603260045260246000fd5b6020020181815250508281600260038110613e58577f4e487b7100000000000000000000000000000000000000000000000000000000600052603260045260246000fd5b602002018181525050600060608360808460076107d05a03fa90508060008114613e8157613e83565bfe5b5080613ec4576040517f08c379a0000000000000000000000000000000000000000000000000000000008152600401613ebb90615b91565b60405180910390fd5b505092915050565b613ed4614bd6565b613edc614c12565b836000015181600060048110613f1b577f4e487b7100000000000000000000000000000000000000000000000000000000600052603260045260246000fd5b602002018181525050836020015181600160048110613f63577f4e487b7100000000000000000000000000000000000000000000000000000000600052603260045260246000fd5b602002018181525050826000015181600260048110613fab577f4e487b7100000000000000000000000000000000000000000000000000000000600052603260045260246000fd5b602002018181525050826020015181600360048110613ff3577f4e487b7100000000000000000000000000000000000000000000000000000000600052603260045260246000fd5b602002018181525050600060608360c08460066107d05a03fa9050806000811461401c5761401e565bfe5b508061405f576040517f08c379a000000000000000000000000000000000000000000000000000000000815260040161405690615d11565b60405180910390fd5b505092915050565b61406f614bd6565b60007f30644e72e131a029b85045b68181585d97816a916871ca8d3c208c16d87cfd479050600083600001511480156140ac575060008360200151145b156140d0576040518060400160405280600081526020016000815250915050614107565b6040518060400160405280846000015181526020018285602001516140f591906163d0565b83614100919061626b565b8152509150505b919050565b600080600467ffffffffffffffff811115614150577f4e487b7100000000000000000000000000000000000000000000000000000000600052604160045260246000fd5b60405190808252806020026020018201604052801561418957816020015b614176614bd6565b81526020019060019003908161416e5790505b5090506000600467ffffffffffffffff8111156141cf577f4e487b7100000000000000000000000000000000000000000000000000000000600052604160045260246000fd5b60405190808252806020026020018201604052801561420857816020015b6141f5614c34565b8152602001906001900390816141ed5790505b5090508a82600081518110614246577f4e487b7100000000000000000000000000000000000000000000000000000000600052603260045260246000fd5b6020026020010181905250888260018151811061428c577f4e487b7100000000000000000000000000000000000000000000000000000000600052603260045260246000fd5b602002602001018190525086826002815181106142d2577f4e487b7100000000000000000000000000000000000000000000000000000000600052603260045260246000fd5b60200260200101819052508482600381518110614318577f4e487b7100000000000000000000000000000000000000000000000000000000600052603260045260246000fd5b6020026020010181905250898160008151811061435e577f4e487b7100000000000000000000000000000000000000000000000000000000600052603260045260246000fd5b602002602001018190525087816001815181106143a4577f4e487b7100000000000000000000000000000000000000000000000000000000600052603260045260246000fd5b602002602001018190525085816002815181106143ea577f4e487b7100000000000000000000000000000000000000000000000000000000600052603260045260246000fd5b60200260200101819052508381600381518110614430577f4e487b7100000000000000000000000000000000000000000000000000000000600052603260045260246000fd5b60200260200101819052506144458282614455565b9250505098975050505050505050565b6000815183511461449b576040517f08c379a000000000000000000000000000000000000000000000000000000000815260040161449290615cf1565b60405180910390fd5b60008351905060006006826144b09190616211565b905060008167ffffffffffffffff8111156144f4577f4e487b7100000000000000000000000000000000000000000000000000000000600052604160045260246000fd5b6040519080825280602002602001820160405280156145225781602001602082028036833780820191505090505b50905060005b83811015614a0757868181518110614569577f4e487b7100000000000000000000000000000000000000000000000000000000600052603260045260246000fd5b6020026020010151600001518260006006846145859190616211565b61458f9190616019565b815181106145c6577f4e487b7100000000000000000000000000000000000000000000000000000000600052603260045260246000fd5b60200260200101818152505086818151811061460b577f4e487b7100000000000000000000000000000000000000000000000000000000600052603260045260246000fd5b6020026020010151602001518260016006846146279190616211565b6146319190616019565b81518110614668577f4e487b7100000000000000000000000000000000000000000000000000000000600052603260045260246000fd5b6020026020010181815250508581815181106146ad577f4e487b7100000000000000000000000000000000000000000000000000000000600052603260045260246000fd5b6020026020010151600001516000600281106146f2577f4e487b7100000000000000000000000000000000000000000000000000000000600052603260045260246000fd5b60200201518260026006846147079190616211565b6147119190616019565b81518110614748577f4e487b7100000000000000000000000000000000000000000000000000000000600052603260045260246000fd5b60200260200101818152505085818151811061478d577f4e487b7100000000000000000000000000000000000000000000000000000000600052603260045260246000fd5b6020026020010151600001516001600281106147d2577f4e487b7100000000000000000000000000000000000000000000000000000000600052603260045260246000fd5b60200201518260036006846147e79190616211565b6147f19190616019565b81518110614828577f4e487b7100000000000000000000000000000000000000000000000000000000600052603260045260246000fd5b60200260200101818152505085818151811061486d577f4e487b7100000000000000000000000000000000000000000000000000000000600052603260045260246000fd5b6020026020010151602001516000600281106148b2577f4e487b7100000000000000000000000000000000000000000000000000000000600052603260045260246000fd5b60200201518260046006846148c79190616211565b6148d19190616019565b81518110614908577f4e487b7100000000000000000000000000000000000000000000000000000000600052603260045260246000fd5b60200260200101818152505085818151811061494d577f4e487b7100000000000000000000000000000000000000000000000000000000600052603260045260246000fd5b602002602001015160200151600160028110614992577f4e487b7100000000000000000000000000000000000000000000000000000000600052603260045260246000fd5b60200201518260056006846149a79190616211565b6149b19190616019565b815181106149e8577f4e487b7100000000000000000000000000000000000000000000000000000000600052603260045260246000fd5b60200260200101818152505080806149ff9061635d565b915050614528565b50614a10614c5a565b6000602082602086026020860160086107d05a03fa90508060008114614a3557614a37565bfe5b5080614a78576040517f08c379a0000000000000000000000000000000000000000000000000000000008152600401614a6f90615d51565b60405180910390fd5b600082600060018110614ab4577f4e487b7100000000000000000000000000000000000000000000000000000000600052603260045260246000fd5b602002015114159550505050505092915050565b6040518060400160405280600290602082028036833780820191505090505090565b604051806101000160405280600890602082028036833780820191505090505090565b6040518060600160405280614b20614bd6565b8152602001614b2d614c34565b8152602001614b3a614bd6565b81525090565b6040518060a00160405280600590602082028036833780820191505090505090565b60405180604001604052806002905b614b79614ac8565b815260200190600190039081614b715790505090565b6040518060a00160405280614ba2614bd6565b8152602001614baf614c34565b8152602001614bbc614c34565b8152602001614bc9614c34565b8152602001606081525090565b604051806040016040528060008152602001600081525090565b6040518060600160405280600390602082028036833780820191505090505090565b6040518060800160405280600490602082028036833780820191505090505090565b6040518060400160405280614c47614ac8565b8152602001614c54614ac8565b81525090565b6040518060200160405280600190602082028036833780820191505090505090565b6000614c8f614c8a84615e23565b615dfe565b90508082856040860282011115614ca557600080fd5b60005b85811015614cd55781614cbb8882614f51565b845260208401935060408301925050600181019050614ca8565b5050509392505050565b6000614cf2614ced84615e49565b615dfe565b90508082856020860282011115614d0857600080fd5b60005b85811015614d385781614d1e888261506b565b845260208401935060208301925050600181019050614d0b565b5050509392505050565b6000614d55614d5084615e6f565b615dfe565b90508082856020860282011115614d6b57600080fd5b60005b85811015614d9b5781614d81888261506b565b845260208401935060208301925050600181019050614d6e565b5050509392505050565b6000614db8614db384615e95565b615dfe565b90508082856020860282011115614dce57600080fd5b60005b85811015614dfe5781614de4888261506b565b845260208401935060208301925050600181019050614dd1565b5050509392505050565b6000614e1b614e1684615ebb565b615dfe565b90508082856020860282011115614e3157600080fd5b60005b85811015614e615781614e47888261506b565b845260208401935060208301925050600181019050614e34565b5050509392505050565b6000614e7e614e7984615ee1565b615dfe565b90508083825260208201905082856020860282011115614e9d57600080fd5b60005b85811015614ecd5781614eb3888261506b565b845260208401935060208301925050600181019050614ea0565b5050509392505050565b6000614eea614ee584615f0d565b615dfe565b905082815260208101848484011115614f0257600080fd5b614f0d84828561631d565b509392505050565b600081359050614f2481616abb565b92915050565b600082601f830112614f3b57600080fd5b6002614f48848285614c7c565b91505092915050565b600082601f830112614f6257600080fd5b6002614f6f848285614cdf565b91505092915050565b600082601f830112614f8957600080fd5b6004614f96848285614d42565b91505092915050565b600082601f830112614fb057600080fd5b6005614fbd848285614da5565b91505092915050565b600082601f830112614fd757600080fd5b6008614fe4848285614e08565b91505092915050565b600082601f830112614ffe57600080fd5b813561500e848260208601614e6b565b91505092915050565b60008135905061502681616ad2565b92915050565b600082601f83011261503d57600080fd5b813561504d848260208601614ed7565b91505092915050565b60008135905061506581616ae9565b92915050565b60008135905061507a81616b00565b92915050565b60008151905061508f81616b00565b92915050565b6000602082840312156150a757600080fd5b60006150b584828501614f15565b91505092915050565b600080600061010084860312156150d457600080fd5b60006150e286828701614f51565b93505060406150f386828701614f2a565b92505060c061510486828701614f51565b9150509250925092565b600080600080610180858703121561512557600080fd5b600061513387828801614f51565b945050604061514487828801614f2a565b93505060c061515587828801614f51565b92505061010061516787828801614f78565b91505092959194509250565b600060a0828403121561518557600080fd5b600061519384828501614f9f565b91505092915050565b600061010082840312156151af57600080fd5b60006151bd84828501614fc6565b91505092915050565b6000602082840312156151d857600080fd5b600082013567ffffffffffffffff8111156151f257600080fd5b6151fe84828501614fed565b91505092915050565b60006020828403121561521957600080fd5b600061522784828501615017565b91505092915050565b6000806000806000610180868803121561524957600080fd5b600086013567ffffffffffffffff81111561526357600080fd5b61526f8882890161502c565b955050602061528088828901614fc6565b9450506101206152928882890161506b565b9350506101406152a48882890161506b565b9250506101606152b688828901615056565b9150509295509295909350565b6000806000806000806101a087890312156152dd57600080fd5b600087013567ffffffffffffffff8111156152f757600080fd5b61530389828a0161502c565b965050602061531489828a01614fc6565b95505061012061532689828a0161506b565b94505061014061533889828a0161506b565b93505061016061534a89828a0161506b565b92505061018061535c89828a01615056565b9150509295509295509295565b60006020828403121561537b57600080fd5b600061538984828501615056565b91505092915050565b6000602082840312156153a457600080fd5b60006153b28482850161506b565b91505092915050565b6000602082840312156153cd57600080fd5b60006153db84828501615080565b91505092915050565b600080604083850312156153f757600080fd5b60006154058582860161506b565b92505060206154168582860161506b565b9150509250929050565b600061542c83836154ce565b60408301905092915050565b600061544483836159c4565b60208301905092915050565b600061545c83836159e2565b60208301905092915050565b6154718161629f565b82525050565b61548081615f66565b61548a8184615fc6565b925061549582615f3e565b8060005b838110156154c65781516154ad8782615420565b96506154b883615f92565b925050600181019050615499565b505050505050565b6154d781615f71565b6154e18184615fd1565b92506154ec82615f48565b8060005b8381101561551d5781516155048782615438565b965061550f83615f9f565b9250506001810190506154f0565b505050505050565b61552e81615f71565b6155388184615fdc565b925061554382615f48565b8060005b8381101561557457815161555b8782615438565b965061556683615f9f565b925050600181019050615547565b505050505050565b61558581615f71565b61558f8184615fe7565b925061559a82615f48565b8060005b838110156155cb5781516155b28782615450565b96506155bd83615f9f565b92505060018101905061559e565b505050505050565b6155dc81615f7c565b6155e68184615ff2565b92506155f182615f52565b8060005b838110156156225781516156098782615450565b965061561483615fac565b9250506001810190506155f5565b505050505050565b61563381615f87565b61563d8184615ffd565b925061564882615f5c565b8060005b838110156156795781516156608782615438565b965061566b83615fb9565b92505060018101905061564c565b505050505050565b61568a816162b1565b82525050565b600061569d602f83616008565b91506156a8826164ac565b604082019050919050565b60006156c0602683616008565b91506156cb826164fb565b604082019050919050565b60006156e3601883616008565b91506156ee8261654a565b602082019050919050565b6000615706604783616008565b915061571182616573565b606082019050919050565b6000615729601883616008565b9150615734826165e8565b602082019050919050565b600061574c601283616008565b915061575782616611565b602082019050919050565b600061576f602583616008565b915061577a8261663a565b604082019050919050565b6000615792601283616008565b915061579d82616689565b602082019050919050565b60006157b5603183616008565b91506157c0826166b2565b604082019050919050565b60006157d8604583616008565b91506157e382616701565b606082019050919050565b60006157fb602983616008565b915061580682616776565b604082019050919050565b600061581e601f83616008565b9150615829826167c5565b602082019050919050565b6000615841602083616008565b915061584c826167ee565b602082019050919050565b6000615864602683616008565b915061586f82616817565b604082019050919050565b6000615887602c83616008565b915061589282616866565b604082019050919050565b60006158aa602183616008565b91506158b5826168b5565b604082019050919050565b60006158cd602783616008565b91506158d882616904565b604082019050919050565b60006158f0604083616008565b91506158fb82616953565b604082019050919050565b6000615913601683616008565b915061591e826169a2565b602082019050919050565b6000615936601283616008565b9150615941826169cb565b602082019050919050565b6000615959603f83616008565b9150615964826169f4565b604082019050919050565b600061597c601583616008565b915061598782616a43565b602082019050919050565b600061599f602183616008565b91506159aa82616a6c565b604082019050919050565b6159be816162dd565b82525050565b6159cd81616306565b82525050565b6159dc81616306565b82525050565b6159eb81616306565b82525050565b6000602082019050615a066000830184615468565b92915050565b6000604082019050615a21600083018461557c565b92915050565b600061010082019050615a3d6000830186615525565b615a4a6040830185615477565b615a5760c0830184615525565b949350505050565b600060a082019050615a7460008301846155d3565b92915050565b600061010082019050615a90600083018461562a565b92915050565b6000602082019050615aab6000830184615681565b92915050565b60006020820190508181036000830152615aca81615690565b9050919050565b60006020820190508181036000830152615aea816156b3565b9050919050565b60006020820190508181036000830152615b0a816156d6565b9050919050565b60006020820190508181036000830152615b2a816156f9565b9050919050565b60006020820190508181036000830152615b4a8161571c565b9050919050565b60006020820190508181036000830152615b6a8161573f565b9050919050565b60006020820190508181036000830152615b8a81615762565b9050919050565b60006020820190508181036000830152615baa81615785565b9050919050565b60006020820190508181036000830152615bca816157a8565b9050919050565b60006020820190508181036000830152615bea816157cb565b9050919050565b60006020820190508181036000830152615c0a816157ee565b9050919050565b60006020820190508181036000830152615c2a81615811565b9050919050565b60006020820190508181036000830152615c4a81615834565b9050919050565b60006020820190508181036000830152615c6a81615857565b9050919050565b60006020820190508181036000830152615c8a8161587a565b9050919050565b60006020820190508181036000830152615caa8161589d565b9050919050565b60006020820190508181036000830152615cca816158c0565b9050919050565b60006020820190508181036000830152615cea816158e3565b9050919050565b60006020820190508181036000830152615d0a81615906565b9050919050565b60006020820190508181036000830152615d2a81615929565b9050919050565b60006020820190508181036000830152615d4a8161594c565b9050919050565b60006020820190508181036000830152615d6a8161596f565b9050919050565b60006020820190508181036000830152615d8a81615992565b9050919050565b6000602082019050615da660008301846159b5565b92915050565b6000606082019050615dc160008301866159b5565b615dce6020830185615681565b615ddb6040830184615681565b949350505050565b6000602082019050615df860008301846159d3565b92915050565b6000615e08615e19565b9050615e14828261632c565b919050565b6000604051905090565b600067ffffffffffffffff821115615e3e57615e3d61645f565b5b602082029050919050565b600067ffffffffffffffff821115615e6457615e6361645f565b5b602082029050919050565b600067ffffffffffffffff821115615e8a57615e8961645f565b5b602082029050919050565b600067ffffffffffffffff821115615eb057615eaf61645f565b5b602082029050919050565b600067ffffffffffffffff821115615ed657615ed561645f565b5b602082029050919050565b600067ffffffffffffffff821115615efc57615efb61645f565b5b602082029050602081019050919050565b600067ffffffffffffffff821115615f2857615f2761645f565b5b615f318261648e565b9050602081019050919050565b6000819050919050565b6000819050919050565b6000819050919050565b6000819050919050565b600060029050919050565b600060029050919050565b600060059050919050565b600060089050919050565b6000602082019050919050565b6000602082019050919050565b6000602082019050919050565b6000602082019050919050565b600081905092915050565b600081905092915050565b600081905092915050565b600081905092915050565b600081905092915050565b600081905092915050565b600082825260208201905092915050565b600061602482616306565b915061602f83616306565b9250827fffffffffffffffffffffffffffffffffffffffffffffffffffffffffffffffff0382111561606457616063616401565b5b828201905092915050565b600061607a82616306565b915061608583616306565b92508261609557616094616430565b5b828204905092915050565b6000808291508390505b60018511156160ea578086048111156160c6576160c5616401565b5b60018516156160d55780820291505b80810290506160e38561649f565b94506160aa565b94509492505050565b60006160fe82616306565b915061610983616306565b92506161367fffffffffffffffffffffffffffffffffffffffffffffffffffffffffffffffff848461613e565b905092915050565b60008261614e576001905061620a565b8161615c576000905061620a565b8160018114616172576002811461617c576161ab565b600191505061620a565b60ff84111561618e5761618d616401565b5b8360020a9150848211156161a5576161a4616401565b5b5061620a565b5060208310610133831016604e8410600b84101617156161e05782820a9050838111156161db576161da616401565b5b61620a565b6161ed84848460016160a0565b9250905081840481111561620457616203616401565b5b81810290505b9392505050565b600061621c82616306565b915061622783616306565b9250817fffffffffffffffffffffffffffffffffffffffffffffffffffffffffffffffff04831182151516156162605761625f616401565b5b828202905092915050565b600061627682616306565b915061628183616306565b92508282101561629457616293616401565b5b828203905092915050565b60006162aa826162bd565b9050919050565b60008115159050919050565b600073ffffffffffffffffffffffffffffffffffffffff82169050919050565b60007cffffffffffffffffffffffffffffffffffffffffffffffffffffffffff82169050919050565b6000819050919050565b600060ff82169050919050565b82818337600083830152505050565b6163358261648e565b810181811067ffffffffffffffff821117156163545761635361645f565b5b80604052505050565b600061636882616306565b91507fffffffffffffffffffffffffffffffffffffffffffffffffffffffffffffffff82141561639b5761639a616401565b5b600182019050919050565b60006163b182616310565b915060ff8214156163c5576163c4616401565b5b600182019050919050565b60006163db82616306565b91506163e683616306565b9250826163f6576163f5616430565b5b828206905092915050565b7f4e487b7100000000000000000000000000000000000000000000000000000000600052601160045260246000fd5b7f4e487b7100000000000000000000000000000000000000000000000000000000600052601260045260246000fd5b7f4e487b7100000000000000000000000000000000000000000000000000000000600052604160045260246000fd5b6000601f19601f8301169050919050565b60008160011c9050919050565b7f53656d6170686f72653a2065787465726e616c206e756c6c696669657220697360008201527f20616c7265616479206163746976650000000000000000000000000000000000602082015250565b7f4f776e61626c653a206e6577206f776e657220697320746865207a65726f206160008201527f6464726573730000000000000000000000000000000000000000000000000000602082015250565b7f53656d6170686f72653a20696e76616c69642070726f6f660000000000000000600082015250565b7f53656d6170686f72653a206964656e7469747920636f6d6d69746d656e74206360008201527f616e6e6f7420626520746865206e6f7468696e672d75702d6d792d736c65657660208201527f652d76616c756500000000000000000000000000000000000000000000000000604082015250565b7f53656d6170686f72653a20726f6f74206e6f74207365656e0000000000000000600082015250565b7f76657269666965722d6261642d696e7075740000000000000000000000000000600082015250565b7f53656d6170686f72653a206e6f20737563682065787465726e616c206e756c6c60008201527f6966696572000000000000000000000000000000000000000000000000000000602082015250565b7f70616972696e672d6d756c2d6661696c65640000000000000000000000000000600082015250565b7f53656d6170686f72653a2065787465726e616c206e756c6c696669657220616c60008201527f7265616479206465616374697661746564000000000000000000000000000000602082015250565b7f496e6372656d656e74616c5175696e547265653a20696e736572744c6561662060008201527f617267756d656e74206d757374206265203c20534e41524b5f5343414c41525f60208201527f4649454c44000000000000000000000000000000000000000000000000000000604082015250565b7f53656d6170686f72653a2065787465726e616c206e756c6c696669657220616c60008201527f7265616479207365740000000000000000000000000000000000000000000000602082015250565b7f76657269666965722d6774652d736e61726b2d7363616c61722d6669656c6400600082015250565b7f4f776e61626c653a2063616c6c6572206973206e6f7420746865206f776e6572600082015250565b7f53656d6170686f72653a2062726f616463617374207065726d697373696f6e2060008201527f64656e6965640000000000000000000000000000000000000000000000000000602082015250565b7f53656d6170686f72653a20696e76616c6964206669656c6420656c656d656e7460008201527f28732920696e2070726f6f660000000000000000000000000000000000000000602082015250565b7f53656d6170686f72653a206e756c6c696669657220616c72656164792073656560008201527f6e00000000000000000000000000000000000000000000000000000000000000602082015250565b7f53656d6170686f72653a2065787465726e616c206e756c6c6966696572206e6f60008201527f7420666f756e6400000000000000000000000000000000000000000000000000602082015250565b7f53656d6170686f72653a20746865206e756c6c6966696572732068617368206d60008201527f757374206265206c742074686520736e61726b207363616c6172206669656c64602082015250565b7f70616972696e672d6c656e677468732d6661696c656400000000000000000000600082015250565b7f70616972696e672d6164642d6661696c65640000000000000000000000000000600082015250565b7f53656d6170686f72653a206e6f2065787465726e616c206e756c6c696669657260008201527f206578697374732061667465722074686520737065636966696564206f6e6500602082015250565b7f70616972696e672d6f70636f64652d6661696c65640000000000000000000000600082015250565b7f496e6372656d656e74616c5175696e547265653a20747265652069732066756c60008201527f6c00000000000000000000000000000000000000000000000000000000000000602082015250565b616ac48161629f565b8114616acf57600080fd5b50565b616adb816162b1565b8114616ae657600080fd5b50565b616af2816162dd565b8114616afd57600080fd5b50565b616b0981616306565b8114616b1457600080fd5b5056fea264697066735822122035f791305eb7107bb614ff9a888c6228ef8fd5c73864c5ec346c6145ae36decf64736f6c63430008040033",
  "linkReferences": {
    "contracts/Poseidon.sol": {
      "PoseidonT3": [
        {
          "length": 20,
          "start": 6634
        },
        {
          "length": 20,
          "start": 11470
        },
        {
          "length": 20,
          "start": 11805
        }
      ],
      "PoseidonT6": [
        {
          "length": 20,
          "start": 918
        },
        {
          "length": 20,
          "start": 11058
        },
        {
          "length": 20,
          "start": 11260
        },
        {
          "length": 20,
          "start": 12088
        }
      ]
    }
  },
  "deployedLinkReferences": {
    "contracts/Poseidon.sol": {
      "PoseidonT3": [
        {
          "length": 20,
          "start": 3225
        },
        {
          "length": 20,
          "start": 8061
        },
        {
          "length": 20,
          "start": 8396
        }
      ],
      "PoseidonT6": [
        {
          "length": 20,
          "start": 7649
        },
        {
          "length": 20,
          "start": 7851
        },
        {
          "length": 20,
          "start": 8679
        }
      ]
    }
  }
}